{
	"data": {
		"bytecode": {
			"linkReferences": {},
			"object": "60a06040523480156200001157600080fd5b50604051620023a3380380620023a3833981810160405281019062000037919062000502565b620000697f21702c8af46127c7fa207f89d0b0a8441bb32959a0ac7df790e9ab1a25c98926846200009960201b60201c565b8160ff1660808160ff168152505080600390805190602001906200008f92919062000212565b50505050620005e2565b620000ab8282620000af60201b60201c565b5050565b620000c18282620001a060201b60201c565b6200019c57600160008084815260200190815260200160002060000160008373ffffffffffffffffffffffffffffffffffffffff1673ffffffffffffffffffffffffffffffffffffffff16815260200190815260200160002060006101000a81548160ff021916908315150217905550620001416200020a60201b60201c565b73ffffffffffffffffffffffffffffffffffffffff168173ffffffffffffffffffffffffffffffffffffffff16837f2f8788117e7eff1d82e926ec794901d17c78024a50270940304540a733656f0d60405160405180910390a45b5050565b600080600084815260200190815260200160002060000160008373ffffffffffffffffffffffffffffffffffffffff1673ffffffffffffffffffffffffffffffffffffffff16815260200190815260200160002060009054906101000a900460ff16905092915050565b600033905090565b8280546200022090620005ac565b90600052602060002090601f01602090048101928262000244576000855562000290565b82601f106200025f57805160ff191683800117855562000290565b8280016001018555821562000290579182015b828111156200028f57825182559160200191906001019062000272565b5b5090506200029f9190620002a3565b5090565b5b80821115620002be576000816000905550600101620002a4565b5090565b6000604051905090565b600080fd5b600080fd5b600073ffffffffffffffffffffffffffffffffffffffff82169050919050565b60006200030382620002d6565b9050919050565b6200031581620002f6565b81146200032157600080fd5b50565b60008151905062000335816200030a565b92915050565b600060ff82169050919050565b62000353816200033b565b81146200035f57600080fd5b50565b600081519050620003738162000348565b92915050565b600080fd5b600080fd5b6000601f19601f8301169050919050565b7f4e487b7100000000000000000000000000000000000000000000000000000000600052604160045260246000fd5b620003ce8262000383565b810181811067ffffffffffffffff82111715620003f057620003ef62000394565b5b80604052505050565b600062000405620002c2565b9050620004138282620003c3565b919050565b600067ffffffffffffffff82111562000436576200043562000394565b5b620004418262000383565b9050602081019050919050565b60005b838110156200046e57808201518184015260208101905062000451565b838111156200047e576000848401525b50505050565b60006200049b620004958462000418565b620003f9565b905082815260208101848484011115620004ba57620004b96200037e565b5b620004c78482856200044e565b509392505050565b600082601f830112620004e757620004e662000379565b5b8151620004f984826020860162000484565b91505092915050565b6000806000606084860312156200051e576200051d620002cc565b5b60006200052e8682870162000324565b9350506020620005418682870162000362565b925050604084015167ffffffffffffffff811115620005655762000564620002d1565b5b6200057386828701620004cf565b9150509250925092565b7f4e487b7100000000000000000000000000000000000000000000000000000000600052602260045260246000fd5b60006002820490506001821680620005c557607f821691505b60208210811415620005dc57620005db6200057d565b5b50919050565b608051611da5620005fe60003960006105410152611da56000f3fe608060405234801561001057600080fd5b50600436106101425760003560e01c80638205bf6a116100b8578063b5ab58dc1161007c578063b5ab58dc1461036d578063b633620c1461039d578063c49baebe146103cd578063d547741f146103eb578063e5fe457714610407578063feaf968c1461042657610142565b80638205bf6a146102b157806382b8ebc7146102cf57806391d14854146102eb5780639a6fc8f51461031b578063a217fddf1461034f57610142565b806336568abe1161010a57806336568abe146101ff57806350d25bcd1461021b57806354fd4d50146102395780635ed63b4014610257578063668a0f02146102755780637284e4161461029357610142565b806301ffc9a714610147578063181f5a7714610177578063248a9ca3146101955780632f2ff15d146101c5578063313ce567146101e1575b600080fd5b610161600480360381019061015c9190611351565b610448565b60405161016e9190611399565b60405180910390f35b61017f6104c2565b60405161018c919061144d565b60405180910390f35b6101af60048036038101906101aa91906114a5565b6104ff565b6040516101bc91906114e1565b60405180910390f35b6101df60048036038101906101da919061155a565b61051e565b005b6101e961053f565b6040516101f691906115b6565b60405180910390f35b6102196004803603810190610214919061155a565b610563565b005b6102236105e6565b60405161023091906115ea565b60405180910390f35b610241610632565b60405161024e919061161e565b60405180910390f35b61025f610637565b60405161026c9190611658565b60405180910390f35b61027d61064d565b60405161028a919061161e565b60405180910390f35b61029b61066d565b6040516102a8919061144d565b60405180910390f35b6102b96106ff565b6040516102c6919061161e565b60405180910390f35b6102e960048036038101906102e491906116ac565b610759565b005b6103056004803603810190610300919061155a565b61092f565b6040516103129190611399565b60405180910390f35b6103356004803603810190610330919061171b565b610999565b604051610346959493929190611757565b60405180910390f35b610357610aef565b60405161036491906114e1565b60405180910390f35b610387600480360381019061038291906117d6565b610af6565b60405161039491906115ea565b60405180910390f35b6103b760048036038101906103b291906117d6565b610b48565b6040516103c4919061161e565b60405180910390f35b6103d5610ba8565b6040516103e291906114e1565b60405180910390f35b6104056004803603810190610400919061155a565b610bcc565b005b61040f610bed565b60405161041d929190611835565b60405180910390f35b61042e610cf1565b60405161043f959493929190611757565b60405180910390f35b60007f7965db0b000000000000000000000000000000000000000000000000000000007bffffffffffffffffffffffffffffffffffffffffffffffffffffffff1916827bffffffffffffffffffffffffffffffffffffffffffffffffffffffff191614806104bb57506104ba82610dd4565b5b9050919050565b60606040518060400160405280601381526020017f466c757850726963654665656420312e312e3000000000000000000000000000815250905090565b6000806000838152602001908152602001600020600101549050919050565b610527826104ff565b61053081610e3e565b61053a8383610e52565b505050565b7f000000000000000000000000000000000000000000000000000000000000000081565b61056b610f32565b73ffffffffffffffffffffffffffffffffffffffff168173ffffffffffffffffffffffffffffffffffffffff16146105d8576040517f08c379a00000000000000000000000000000000000000000000000000000000081526004016105cf906118d0565b60405180910390fd5b6105e28282610f3a565b5050565b600060026000600160009054906101000a900463ffffffff1663ffffffff1663ffffffff16815260200190815260200160002060000160009054906101000a900460170b60170b905090565b600181565b600160009054906101000a900463ffffffff1681565b6000600160009054906101000a900463ffffffff1663ffffffff16905090565b60606003805461067c9061191f565b80601f01602080910402602001604051908101604052809291908181526020018280546106a89061191f565b80156106f55780601f106106ca576101008083540402835291602001916106f5565b820191906000526020600020905b8154815290600101906020018083116106d857829003601f168201915b5050505050905090565b600060026000600160009054906101000a900463ffffffff1663ffffffff1663ffffffff16815260200190815260200160002060000160189054906101000a900467ffffffffffffffff1667ffffffffffffffff16905090565b6107837f21702c8af46127c7fa207f89d0b0a8441bb32959a0ac7df790e9ab1a25c989263361092f565b6107c2576040517f08c379a00000000000000000000000000000000000000000000000000000000081526004016107b99061199d565b60405180910390fd5b6001600081819054906101000a900463ffffffff16809291906107e4906119ec565b91906101000a81548163ffffffff021916908363ffffffff1602179055505060405180604001604052808260170b81526020014267ffffffffffffffff1681525060026000600160009054906101000a900463ffffffff1663ffffffff1663ffffffff16815260200190815260200160002060008201518160000160006101000a81548177ffffffffffffffffffffffffffffffffffffffffffffffff021916908360170b77ffffffffffffffffffffffffffffffffffffffffffffffff16021790555060208201518160000160186101000a81548167ffffffffffffffff021916908367ffffffffffffffff160217905550905050600160009054906101000a900463ffffffff1663ffffffff167f17eabd0a66fa631f7537cefdd5df6aa25d5ac904cf7596e958d43a75a00d0d688233604051610924929190611a28565b60405180910390a250565b600080600084815260200190815260200160002060000160008373ffffffffffffffffffffffffffffffffffffffff1673ffffffffffffffffffffffffffffffffffffffff16815260200190815260200160002060009054906101000a900460ff16905092915050565b600080600080600063ffffffff8669ffffffffffffffffffff1611156040518060400160405280600f81526020017f4e6f20646174612070726573656e74000000000000000000000000000000000081525090610a2c576040517f08c379a0000000000000000000000000000000000000000000000000000000008152600401610a23919061144d565b60405180910390fd5b506000600260008863ffffffff1663ffffffff1681526020019081526020016000206040518060400160405290816000820160009054906101000a900460170b60170b60170b81526020016000820160189054906101000a900467ffffffffffffffff1667ffffffffffffffff1667ffffffffffffffff16815250509050868160000151826020015183602001518a8360170b93508267ffffffffffffffff1692508167ffffffffffffffff169150955095509550955095505091939590929450565b6000801b81565b600063ffffffff821115610b0d5760009050610b43565b600260008363ffffffff1663ffffffff16815260200190815260200160002060000160009054906101000a900460170b60170b90505b919050565b600063ffffffff821115610b5f5760009050610ba3565b600260008363ffffffff1663ffffffff16815260200190815260200160002060000160189054906101000a900467ffffffffffffffff1667ffffffffffffffff1690505b919050565b7f21702c8af46127c7fa207f89d0b0a8441bb32959a0ac7df790e9ab1a25c9892681565b610bd5826104ff565b610bde81610e3e565b610be88383610f3a565b505050565b6000803273ffffffffffffffffffffffffffffffffffffffff163373ffffffffffffffffffffffffffffffffffffffff1614610c5e576040517f08c379a0000000000000000000000000000000000000000000000000000000008152600401610c5590611a9d565b60405180910390fd5b60026000600160009054906101000a900463ffffffff1663ffffffff1663ffffffff16815260200190815260200160002060000160009054906101000a900460170b60026000600160009054906101000a900463ffffffff1663ffffffff1663ffffffff16815260200190815260200160002060000160189054906101000a900467ffffffffffffffff16915091509091565b6000806000806000600160009054906101000a900463ffffffff1663ffffffff1694506000600260008763ffffffff1663ffffffff1681526020019081526020016000206040518060400160405290816000820160009054906101000a900460170b60170b60170b81526020016000820160189054906101000a900467ffffffffffffffff1667ffffffffffffffff1667ffffffffffffffff1681525050905085816000015182602001518360200151898360170b93508267ffffffffffffffff1692508167ffffffffffffffff16915095509550955095509550509091929394565b60007f01ffc9a7000000000000000000000000000000000000000000000000000000007bffffffffffffffffffffffffffffffffffffffffffffffffffffffff1916827bffffffffffffffffffffffffffffffffffffffffffffffffffffffff1916149050919050565b610e4f81610e4a610f32565b61101b565b50565b610e5c828261092f565b610f2e57600160008084815260200190815260200160002060000160008373ffffffffffffffffffffffffffffffffffffffff1673ffffffffffffffffffffffffffffffffffffffff16815260200190815260200160002060006101000a81548160ff021916908315150217905550610ed3610f32565b73ffffffffffffffffffffffffffffffffffffffff168173ffffffffffffffffffffffffffffffffffffffff16837f2f8788117e7eff1d82e926ec794901d17c78024a50270940304540a733656f0d60405160405180910390a45b5050565b600033905090565b610f44828261092f565b1561101757600080600084815260200190815260200160002060000160008373ffffffffffffffffffffffffffffffffffffffff1673ffffffffffffffffffffffffffffffffffffffff16815260200190815260200160002060006101000a81548160ff021916908315150217905550610fbc610f32565b73ffffffffffffffffffffffffffffffffffffffff168173ffffffffffffffffffffffffffffffffffffffff16837ff6391f5c32d9c69d2a47ea670b442974b53935d1edc7fd64eb21e047a839171b60405160405180910390a45b5050565b611025828261092f565b6110b45761104a8173ffffffffffffffffffffffffffffffffffffffff1660146110b8565b6110588360001c60206110b8565b604051602001611069929190611b91565b6040516020818303038152906040526040517f08c379a00000000000000000000000000000000000000000000000000000000081526004016110ab919061144d565b60405180910390fd5b5050565b6060600060028360026110cb9190611bcb565b6110d59190611c25565b67ffffffffffffffff8111156110ee576110ed611c7b565b5b6040519080825280601f01601f1916602001820160405280156111205781602001600182028036833780820191505090505b5090507f30000000000000000000000000000000000000000000000000000000000000008160008151811061115857611157611caa565b5b60200101907effffffffffffffffffffffffffffffffffffffffffffffffffffffffffffff1916908160001a9053507f7800000000000000000000000000000000000000000000000000000000000000816001815181106111bc576111bb611caa565b5b60200101907effffffffffffffffffffffffffffffffffffffffffffffffffffffffffffff1916908160001a905350600060018460026111fc9190611bcb565b6112069190611c25565b90505b60018111156112a6577f3031323334353637383961626364656600000000000000000000000000000000600f86166010811061124857611247611caa565b5b1a60f81b82828151811061125f5761125e611caa565b5b60200101907effffffffffffffffffffffffffffffffffffffffffffffffffffffffffffff1916908160001a905350600485901c94508061129f90611cd9565b9050611209565b50600084146112ea576040517f08c379a00000000000000000000000000000000000000000000000000000000081526004016112e190611d4f565b60405180910390fd5b8091505092915050565b600080fd5b60007fffffffff0000000000000000000000000000000000000000000000000000000082169050919050565b61132e816112f9565b811461133957600080fd5b50565b60008135905061134b81611325565b92915050565b600060208284031215611367576113666112f4565b5b60006113758482850161133c565b91505092915050565b60008115159050919050565b6113938161137e565b82525050565b60006020820190506113ae600083018461138a565b92915050565b600081519050919050565b600082825260208201905092915050565b60005b838110156113ee5780820151818401526020810190506113d3565b838111156113fd576000848401525b50505050565b6000601f19601f8301169050919050565b600061141f826113b4565b61142981856113bf565b93506114398185602086016113d0565b61144281611403565b840191505092915050565b600060208201905081810360008301526114678184611414565b905092915050565b6000819050919050565b6114828161146f565b811461148d57600080fd5b50565b60008135905061149f81611479565b92915050565b6000602082840312156114bb576114ba6112f4565b5b60006114c984828501611490565b91505092915050565b6114db8161146f565b82525050565b60006020820190506114f660008301846114d2565b92915050565b600073ffffffffffffffffffffffffffffffffffffffff82169050919050565b6000611527826114fc565b9050919050565b6115378161151c565b811461154257600080fd5b50565b6000813590506115548161152e565b92915050565b60008060408385031215611571576115706112f4565b5b600061157f85828601611490565b925050602061159085828601611545565b9150509250929050565b600060ff82169050919050565b6115b08161159a565b82525050565b60006020820190506115cb60008301846115a7565b92915050565b6000819050919050565b6115e4816115d1565b82525050565b60006020820190506115ff60008301846115db565b92915050565b6000819050919050565b61161881611605565b82525050565b6000602082019050611633600083018461160f565b92915050565b600063ffffffff82169050919050565b61165281611639565b82525050565b600060208201905061166d6000830184611649565b92915050565b60008160170b9050919050565b61168981611673565b811461169457600080fd5b50565b6000813590506116a681611680565b92915050565b6000602082840312156116c2576116c16112f4565b5b60006116d084828501611697565b91505092915050565b600069ffffffffffffffffffff82169050919050565b6116f8816116d9565b811461170357600080fd5b50565b600081359050611715816116ef565b92915050565b600060208284031215611731576117306112f4565b5b600061173f84828501611706565b91505092915050565b611751816116d9565b82525050565b600060a08201905061176c6000830188611748565b61177960208301876115db565b611786604083018661160f565b611793606083018561160f565b6117a06080830184611748565b9695505050505050565b6117b381611605565b81146117be57600080fd5b50565b6000813590506117d0816117aa565b92915050565b6000602082840312156117ec576117eb6112f4565b5b60006117fa848285016117c1565b91505092915050565b61180c81611673565b82525050565b600067ffffffffffffffff82169050919050565b61182f81611812565b82525050565b600060408201905061184a6000830185611803565b6118576020830184611826565b9392505050565b7f416363657373436f6e74726f6c3a2063616e206f6e6c792072656e6f756e636560008201527f20726f6c657320666f722073656c660000000000000000000000000000000000602082015250565b60006118ba602f836113bf565b91506118c58261185e565b604082019050919050565b600060208201905081810360008301526118e9816118ad565b9050919050565b7f4e487b7100000000000000000000000000000000000000000000000000000000600052602260045260246000fd5b6000600282049050600182168061193757607f821691505b6020821081141561194b5761194a6118f0565b5b50919050565b7f43616c6c6572206973206e6f7420612076616c696461746f7200000000000000600082015250565b60006119876019836113bf565b915061199282611951565b602082019050919050565b600060208201905081810360008301526119b68161197a565b9050919050565b7f4e487b7100000000000000000000000000000000000000000000000000000000600052601160045260246000fd5b60006119f782611639565b915063ffffffff821415611a0e57611a0d6119bd565b5b600182019050919050565b611a228161151c565b82525050565b6000604082019050611a3d6000830185611803565b611a4a6020830184611a19565b9392505050565b7f4f6e6c792063616c6c61626c6520627920454f41000000000000000000000000600082015250565b6000611a876014836113bf565b9150611a9282611a51565b602082019050919050565b60006020820190508181036000830152611ab681611a7a565b9050919050565b600081905092915050565b7f416363657373436f6e74726f6c3a206163636f756e7420000000000000000000600082015250565b6000611afe601783611abd565b9150611b0982611ac8565b601782019050919050565b6000611b1f826113b4565b611b298185611abd565b9350611b398185602086016113d0565b80840191505092915050565b7f206973206d697373696e6720726f6c6520000000000000000000000000000000600082015250565b6000611b7b601183611abd565b9150611b8682611b45565b601182019050919050565b6000611b9c82611af1565b9150611ba88285611b14565b9150611bb382611b6e565b9150611bbf8284611b14565b91508190509392505050565b6000611bd682611605565b9150611be183611605565b9250817fffffffffffffffffffffffffffffffffffffffffffffffffffffffffffffffff0483118215151615611c1a57611c196119bd565b5b828202905092915050565b6000611c3082611605565b9150611c3b83611605565b9250827fffffffffffffffffffffffffffffffffffffffffffffffffffffffffffffffff03821115611c7057611c6f6119bd565b5b828201905092915050565b7f4e487b7100000000000000000000000000000000000000000000000000000000600052604160045260246000fd5b7f4e487b7100000000000000000000000000000000000000000000000000000000600052603260045260246000fd5b6000611ce482611605565b91506000821415611cf857611cf76119bd565b5b600182039050919050565b7f537472696e67733a20686578206c656e67746820696e73756666696369656e74600082015250565b6000611d396020836113bf565b9150611d4482611d03565b602082019050919050565b60006020820190508181036000830152611d6881611d2c565b905091905056fea2646970667358221220b30b6fc9b406a1e32220b4bf15f67fa9f7cad60a7c4e5637e34c0f87b47d306f64736f6c634300080b0033",
			"opcodes": "PUSH1 0xA0 PUSH1 0x40 MSTORE CALLVALUE DUP1 ISZERO PUSH3 0x11 JUMPI PUSH1 0x0 DUP1 REVERT JUMPDEST POP PUSH1 0x40 MLOAD PUSH3 0x23A3 CODESIZE SUB DUP1 PUSH3 0x23A3 DUP4 CODECOPY DUP2 DUP2 ADD PUSH1 0x40 MSTORE DUP2 ADD SWAP1 PUSH3 0x37 SWAP2 SWAP1 PUSH3 0x502 JUMP JUMPDEST PUSH3 0x69 PUSH32 0x21702C8AF46127C7FA207F89D0B0A8441BB32959A0AC7DF790E9AB1A25C98926 DUP5 PUSH3 0x99 PUSH1 0x20 SHL PUSH1 0x20 SHR JUMP JUMPDEST DUP2 PUSH1 0xFF AND PUSH1 0x80 DUP2 PUSH1 0xFF AND DUP2 MSTORE POP POP DUP1 PUSH1 0x3 SWAP1 DUP1 MLOAD SWAP1 PUSH1 0x20 ADD SWAP1 PUSH3 0x8F SWAP3 SWAP2 SWAP1 PUSH3 0x212 JUMP JUMPDEST POP POP POP POP PUSH3 0x5E2 JUMP JUMPDEST PUSH3 0xAB DUP3 DUP3 PUSH3 0xAF PUSH1 0x20 SHL PUSH1 0x20 SHR JUMP JUMPDEST POP POP JUMP JUMPDEST PUSH3 0xC1 DUP3 DUP3 PUSH3 0x1A0 PUSH1 0x20 SHL PUSH1 0x20 SHR JUMP JUMPDEST PUSH3 0x19C JUMPI PUSH1 0x1 PUSH1 0x0 DUP1 DUP5 DUP2 MSTORE PUSH1 0x20 ADD SWAP1 DUP2 MSTORE PUSH1 0x20 ADD PUSH1 0x0 KECCAK256 PUSH1 0x0 ADD PUSH1 0x0 DUP4 PUSH20 0xFFFFFFFFFFFFFFFFFFFFFFFFFFFFFFFFFFFFFFFF AND PUSH20 0xFFFFFFFFFFFFFFFFFFFFFFFFFFFFFFFFFFFFFFFF AND DUP2 MSTORE PUSH1 0x20 ADD SWAP1 DUP2 MSTORE PUSH1 0x20 ADD PUSH1 0x0 KECCAK256 PUSH1 0x0 PUSH2 0x100 EXP DUP2 SLOAD DUP2 PUSH1 0xFF MUL NOT AND SWAP1 DUP4 ISZERO ISZERO MUL OR SWAP1 SSTORE POP PUSH3 0x141 PUSH3 0x20A PUSH1 0x20 SHL PUSH1 0x20 SHR JUMP JUMPDEST PUSH20 0xFFFFFFFFFFFFFFFFFFFFFFFFFFFFFFFFFFFFFFFF AND DUP2 PUSH20 0xFFFFFFFFFFFFFFFFFFFFFFFFFFFFFFFFFFFFFFFF AND DUP4 PUSH32 0x2F8788117E7EFF1D82E926EC794901D17C78024A50270940304540A733656F0D PUSH1 0x40 MLOAD PUSH1 0x40 MLOAD DUP1 SWAP2 SUB SWAP1 LOG4 JUMPDEST POP POP JUMP JUMPDEST PUSH1 0x0 DUP1 PUSH1 0x0 DUP5 DUP2 MSTORE PUSH1 0x20 ADD SWAP1 DUP2 MSTORE PUSH1 0x20 ADD PUSH1 0x0 KECCAK256 PUSH1 0x0 ADD PUSH1 0x0 DUP4 PUSH20 0xFFFFFFFFFFFFFFFFFFFFFFFFFFFFFFFFFFFFFFFF AND PUSH20 0xFFFFFFFFFFFFFFFFFFFFFFFFFFFFFFFFFFFFFFFF AND DUP2 MSTORE PUSH1 0x20 ADD SWAP1 DUP2 MSTORE PUSH1 0x20 ADD PUSH1 0x0 KECCAK256 PUSH1 0x0 SWAP1 SLOAD SWAP1 PUSH2 0x100 EXP SWAP1 DIV PUSH1 0xFF AND SWAP1 POP SWAP3 SWAP2 POP POP JUMP JUMPDEST PUSH1 0x0 CALLER SWAP1 POP SWAP1 JUMP JUMPDEST DUP3 DUP1 SLOAD PUSH3 0x220 SWAP1 PUSH3 0x5AC JUMP JUMPDEST SWAP1 PUSH1 0x0 MSTORE PUSH1 0x20 PUSH1 0x0 KECCAK256 SWAP1 PUSH1 0x1F ADD PUSH1 0x20 SWAP1 DIV DUP2 ADD SWAP3 DUP3 PUSH3 0x244 JUMPI PUSH1 0x0 DUP6 SSTORE PUSH3 0x290 JUMP JUMPDEST DUP3 PUSH1 0x1F LT PUSH3 0x25F JUMPI DUP1 MLOAD PUSH1 0xFF NOT AND DUP4 DUP1 ADD OR DUP6 SSTORE PUSH3 0x290 JUMP JUMPDEST DUP3 DUP1 ADD PUSH1 0x1 ADD DUP6 SSTORE DUP3 ISZERO PUSH3 0x290 JUMPI SWAP2 DUP3 ADD JUMPDEST DUP3 DUP2 GT ISZERO PUSH3 0x28F JUMPI DUP3 MLOAD DUP3 SSTORE SWAP2 PUSH1 0x20 ADD SWAP2 SWAP1 PUSH1 0x1 ADD SWAP1 PUSH3 0x272 JUMP JUMPDEST JUMPDEST POP SWAP1 POP PUSH3 0x29F SWAP2 SWAP1 PUSH3 0x2A3 JUMP JUMPDEST POP SWAP1 JUMP JUMPDEST JUMPDEST DUP1 DUP3 GT ISZERO PUSH3 0x2BE JUMPI PUSH1 0x0 DUP2 PUSH1 0x0 SWAP1 SSTORE POP PUSH1 0x1 ADD PUSH3 0x2A4 JUMP JUMPDEST POP SWAP1 JUMP JUMPDEST PUSH1 0x0 PUSH1 0x40 MLOAD SWAP1 POP SWAP1 JUMP JUMPDEST PUSH1 0x0 DUP1 REVERT JUMPDEST PUSH1 0x0 DUP1 REVERT JUMPDEST PUSH1 0x0 PUSH20 0xFFFFFFFFFFFFFFFFFFFFFFFFFFFFFFFFFFFFFFFF DUP3 AND SWAP1 POP SWAP2 SWAP1 POP JUMP JUMPDEST PUSH1 0x0 PUSH3 0x303 DUP3 PUSH3 0x2D6 JUMP JUMPDEST SWAP1 POP SWAP2 SWAP1 POP JUMP JUMPDEST PUSH3 0x315 DUP2 PUSH3 0x2F6 JUMP JUMPDEST DUP2 EQ PUSH3 0x321 JUMPI PUSH1 0x0 DUP1 REVERT JUMPDEST POP JUMP JUMPDEST PUSH1 0x0 DUP2 MLOAD SWAP1 POP PUSH3 0x335 DUP2 PUSH3 0x30A JUMP JUMPDEST SWAP3 SWAP2 POP POP JUMP JUMPDEST PUSH1 0x0 PUSH1 0xFF DUP3 AND SWAP1 POP SWAP2 SWAP1 POP JUMP JUMPDEST PUSH3 0x353 DUP2 PUSH3 0x33B JUMP JUMPDEST DUP2 EQ PUSH3 0x35F JUMPI PUSH1 0x0 DUP1 REVERT JUMPDEST POP JUMP JUMPDEST PUSH1 0x0 DUP2 MLOAD SWAP1 POP PUSH3 0x373 DUP2 PUSH3 0x348 JUMP JUMPDEST SWAP3 SWAP2 POP POP JUMP JUMPDEST PUSH1 0x0 DUP1 REVERT JUMPDEST PUSH1 0x0 DUP1 REVERT JUMPDEST PUSH1 0x0 PUSH1 0x1F NOT PUSH1 0x1F DUP4 ADD AND SWAP1 POP SWAP2 SWAP1 POP JUMP JUMPDEST PUSH32 0x4E487B7100000000000000000000000000000000000000000000000000000000 PUSH1 0x0 MSTORE PUSH1 0x41 PUSH1 0x4 MSTORE PUSH1 0x24 PUSH1 0x0 REVERT JUMPDEST PUSH3 0x3CE DUP3 PUSH3 0x383 JUMP JUMPDEST DUP2 ADD DUP2 DUP2 LT PUSH8 0xFFFFFFFFFFFFFFFF DUP3 GT OR ISZERO PUSH3 0x3F0 JUMPI PUSH3 0x3EF PUSH3 0x394 JUMP JUMPDEST JUMPDEST DUP1 PUSH1 0x40 MSTORE POP POP POP JUMP JUMPDEST PUSH1 0x0 PUSH3 0x405 PUSH3 0x2C2 JUMP JUMPDEST SWAP1 POP PUSH3 0x413 DUP3 DUP3 PUSH3 0x3C3 JUMP JUMPDEST SWAP2 SWAP1 POP JUMP JUMPDEST PUSH1 0x0 PUSH8 0xFFFFFFFFFFFFFFFF DUP3 GT ISZERO PUSH3 0x436 JUMPI PUSH3 0x435 PUSH3 0x394 JUMP JUMPDEST JUMPDEST PUSH3 0x441 DUP3 PUSH3 0x383 JUMP JUMPDEST SWAP1 POP PUSH1 0x20 DUP2 ADD SWAP1 POP SWAP2 SWAP1 POP JUMP JUMPDEST PUSH1 0x0 JUMPDEST DUP4 DUP2 LT ISZERO PUSH3 0x46E JUMPI DUP1 DUP3 ADD MLOAD DUP2 DUP5 ADD MSTORE PUSH1 0x20 DUP2 ADD SWAP1 POP PUSH3 0x451 JUMP JUMPDEST DUP4 DUP2 GT ISZERO PUSH3 0x47E JUMPI PUSH1 0x0 DUP5 DUP5 ADD MSTORE JUMPDEST POP POP POP POP JUMP JUMPDEST PUSH1 0x0 PUSH3 0x49B PUSH3 0x495 DUP5 PUSH3 0x418 JUMP JUMPDEST PUSH3 0x3F9 JUMP JUMPDEST SWAP1 POP DUP3 DUP2 MSTORE PUSH1 0x20 DUP2 ADD DUP5 DUP5 DUP5 ADD GT ISZERO PUSH3 0x4BA JUMPI PUSH3 0x4B9 PUSH3 0x37E JUMP JUMPDEST JUMPDEST PUSH3 0x4C7 DUP5 DUP3 DUP6 PUSH3 0x44E JUMP JUMPDEST POP SWAP4 SWAP3 POP POP POP JUMP JUMPDEST PUSH1 0x0 DUP3 PUSH1 0x1F DUP4 ADD SLT PUSH3 0x4E7 JUMPI PUSH3 0x4E6 PUSH3 0x379 JUMP JUMPDEST JUMPDEST DUP2 MLOAD PUSH3 0x4F9 DUP5 DUP3 PUSH1 0x20 DUP7 ADD PUSH3 0x484 JUMP JUMPDEST SWAP2 POP POP SWAP3 SWAP2 POP POP JUMP JUMPDEST PUSH1 0x0 DUP1 PUSH1 0x0 PUSH1 0x60 DUP5 DUP7 SUB SLT ISZERO PUSH3 0x51E JUMPI PUSH3 0x51D PUSH3 0x2CC JUMP JUMPDEST JUMPDEST PUSH1 0x0 PUSH3 0x52E DUP7 DUP3 DUP8 ADD PUSH3 0x324 JUMP JUMPDEST SWAP4 POP POP PUSH1 0x20 PUSH3 0x541 DUP7 DUP3 DUP8 ADD PUSH3 0x362 JUMP JUMPDEST SWAP3 POP POP PUSH1 0x40 DUP5 ADD MLOAD PUSH8 0xFFFFFFFFFFFFFFFF DUP2 GT ISZERO PUSH3 0x565 JUMPI PUSH3 0x564 PUSH3 0x2D1 JUMP JUMPDEST JUMPDEST PUSH3 0x573 DUP7 DUP3 DUP8 ADD PUSH3 0x4CF JUMP JUMPDEST SWAP2 POP POP SWAP3 POP SWAP3 POP SWAP3 JUMP JUMPDEST PUSH32 0x4E487B7100000000000000000000000000000000000000000000000000000000 PUSH1 0x0 MSTORE PUSH1 0x22 PUSH1 0x4 MSTORE PUSH1 0x24 PUSH1 0x0 REVERT JUMPDEST PUSH1 0x0 PUSH1 0x2 DUP3 DIV SWAP1 POP PUSH1 0x1 DUP3 AND DUP1 PUSH3 0x5C5 JUMPI PUSH1 0x7F DUP3 AND SWAP2 POP JUMPDEST PUSH1 0x20 DUP3 LT DUP2 EQ ISZERO PUSH3 0x5DC JUMPI PUSH3 0x5DB PUSH3 0x57D JUMP JUMPDEST JUMPDEST POP SWAP2 SWAP1 POP JUMP JUMPDEST PUSH1 0x80 MLOAD PUSH2 0x1DA5 PUSH3 0x5FE PUSH1 0x0 CODECOPY PUSH1 0x0 PUSH2 0x541 ADD MSTORE PUSH2 0x1DA5 PUSH1 0x0 RETURN INVALID PUSH1 0x80 PUSH1 0x40 MSTORE CALLVALUE DUP1 ISZERO PUSH2 0x10 JUMPI PUSH1 0x0 DUP1 REVERT JUMPDEST POP PUSH1 0x4 CALLDATASIZE LT PUSH2 0x142 JUMPI PUSH1 0x0 CALLDATALOAD PUSH1 0xE0 SHR DUP1 PUSH4 0x8205BF6A GT PUSH2 0xB8 JUMPI DUP1 PUSH4 0xB5AB58DC GT PUSH2 0x7C JUMPI DUP1 PUSH4 0xB5AB58DC EQ PUSH2 0x36D JUMPI DUP1 PUSH4 0xB633620C EQ PUSH2 0x39D JUMPI DUP1 PUSH4 0xC49BAEBE EQ PUSH2 0x3CD JUMPI DUP1 PUSH4 0xD547741F EQ PUSH2 0x3EB JUMPI DUP1 PUSH4 0xE5FE4577 EQ PUSH2 0x407 JUMPI DUP1 PUSH4 0xFEAF968C EQ PUSH2 0x426 JUMPI PUSH2 0x142 JUMP JUMPDEST DUP1 PUSH4 0x8205BF6A EQ PUSH2 0x2B1 JUMPI DUP1 PUSH4 0x82B8EBC7 EQ PUSH2 0x2CF JUMPI DUP1 PUSH4 0x91D14854 EQ PUSH2 0x2EB JUMPI DUP1 PUSH4 0x9A6FC8F5 EQ PUSH2 0x31B JUMPI DUP1 PUSH4 0xA217FDDF EQ PUSH2 0x34F JUMPI PUSH2 0x142 JUMP JUMPDEST DUP1 PUSH4 0x36568ABE GT PUSH2 0x10A JUMPI DUP1 PUSH4 0x36568ABE EQ PUSH2 0x1FF JUMPI DUP1 PUSH4 0x50D25BCD EQ PUSH2 0x21B JUMPI DUP1 PUSH4 0x54FD4D50 EQ PUSH2 0x239 JUMPI DUP1 PUSH4 0x5ED63B40 EQ PUSH2 0x257 JUMPI DUP1 PUSH4 0x668A0F02 EQ PUSH2 0x275 JUMPI DUP1 PUSH4 0x7284E416 EQ PUSH2 0x293 JUMPI PUSH2 0x142 JUMP JUMPDEST DUP1 PUSH4 0x1FFC9A7 EQ PUSH2 0x147 JUMPI DUP1 PUSH4 0x181F5A77 EQ PUSH2 0x177 JUMPI DUP1 PUSH4 0x248A9CA3 EQ PUSH2 0x195 JUMPI DUP1 PUSH4 0x2F2FF15D EQ PUSH2 0x1C5 JUMPI DUP1 PUSH4 0x313CE567 EQ PUSH2 0x1E1 JUMPI JUMPDEST PUSH1 0x0 DUP1 REVERT JUMPDEST PUSH2 0x161 PUSH1 0x4 DUP1 CALLDATASIZE SUB DUP2 ADD SWAP1 PUSH2 0x15C SWAP2 SWAP1 PUSH2 0x1351 JUMP JUMPDEST PUSH2 0x448 JUMP JUMPDEST PUSH1 0x40 MLOAD PUSH2 0x16E SWAP2 SWAP1 PUSH2 0x1399 JUMP JUMPDEST PUSH1 0x40 MLOAD DUP1 SWAP2 SUB SWAP1 RETURN JUMPDEST PUSH2 0x17F PUSH2 0x4C2 JUMP JUMPDEST PUSH1 0x40 MLOAD PUSH2 0x18C SWAP2 SWAP1 PUSH2 0x144D JUMP JUMPDEST PUSH1 0x40 MLOAD DUP1 SWAP2 SUB SWAP1 RETURN JUMPDEST PUSH2 0x1AF PUSH1 0x4 DUP1 CALLDATASIZE SUB DUP2 ADD SWAP1 PUSH2 0x1AA SWAP2 SWAP1 PUSH2 0x14A5 JUMP JUMPDEST PUSH2 0x4FF JUMP JUMPDEST PUSH1 0x40 MLOAD PUSH2 0x1BC SWAP2 SWAP1 PUSH2 0x14E1 JUMP JUMPDEST PUSH1 0x40 MLOAD DUP1 SWAP2 SUB SWAP1 RETURN JUMPDEST PUSH2 0x1DF PUSH1 0x4 DUP1 CALLDATASIZE SUB DUP2 ADD SWAP1 PUSH2 0x1DA SWAP2 SWAP1 PUSH2 0x155A JUMP JUMPDEST PUSH2 0x51E JUMP JUMPDEST STOP JUMPDEST PUSH2 0x1E9 PUSH2 0x53F JUMP JUMPDEST PUSH1 0x40 MLOAD PUSH2 0x1F6 SWAP2 SWAP1 PUSH2 0x15B6 JUMP JUMPDEST PUSH1 0x40 MLOAD DUP1 SWAP2 SUB SWAP1 RETURN JUMPDEST PUSH2 0x219 PUSH1 0x4 DUP1 CALLDATASIZE SUB DUP2 ADD SWAP1 PUSH2 0x214 SWAP2 SWAP1 PUSH2 0x155A JUMP JUMPDEST PUSH2 0x563 JUMP JUMPDEST STOP JUMPDEST PUSH2 0x223 PUSH2 0x5E6 JUMP JUMPDEST PUSH1 0x40 MLOAD PUSH2 0x230 SWAP2 SWAP1 PUSH2 0x15EA JUMP JUMPDEST PUSH1 0x40 MLOAD DUP1 SWAP2 SUB SWAP1 RETURN JUMPDEST PUSH2 0x241 PUSH2 0x632 JUMP JUMPDEST PUSH1 0x40 MLOAD PUSH2 0x24E SWAP2 SWAP1 PUSH2 0x161E JUMP JUMPDEST PUSH1 0x40 MLOAD DUP1 SWAP2 SUB SWAP1 RETURN JUMPDEST PUSH2 0x25F PUSH2 0x637 JUMP JUMPDEST PUSH1 0x40 MLOAD PUSH2 0x26C SWAP2 SWAP1 PUSH2 0x1658 JUMP JUMPDEST PUSH1 0x40 MLOAD DUP1 SWAP2 SUB SWAP1 RETURN JUMPDEST PUSH2 0x27D PUSH2 0x64D JUMP JUMPDEST PUSH1 0x40 MLOAD PUSH2 0x28A SWAP2 SWAP1 PUSH2 0x161E JUMP JUMPDEST PUSH1 0x40 MLOAD DUP1 SWAP2 SUB SWAP1 RETURN JUMPDEST PUSH2 0x29B PUSH2 0x66D JUMP JUMPDEST PUSH1 0x40 MLOAD PUSH2 0x2A8 SWAP2 SWAP1 PUSH2 0x144D JUMP JUMPDEST PUSH1 0x40 MLOAD DUP1 SWAP2 SUB SWAP1 RETURN JUMPDEST PUSH2 0x2B9 PUSH2 0x6FF JUMP JUMPDEST PUSH1 0x40 MLOAD PUSH2 0x2C6 SWAP2 SWAP1 PUSH2 0x161E JUMP JUMPDEST PUSH1 0x40 MLOAD DUP1 SWAP2 SUB SWAP1 RETURN JUMPDEST PUSH2 0x2E9 PUSH1 0x4 DUP1 CALLDATASIZE SUB DUP2 ADD SWAP1 PUSH2 0x2E4 SWAP2 SWAP1 PUSH2 0x16AC JUMP JUMPDEST PUSH2 0x759 JUMP JUMPDEST STOP JUMPDEST PUSH2 0x305 PUSH1 0x4 DUP1 CALLDATASIZE SUB DUP2 ADD SWAP1 PUSH2 0x300 SWAP2 SWAP1 PUSH2 0x155A JUMP JUMPDEST PUSH2 0x92F JUMP JUMPDEST PUSH1 0x40 MLOAD PUSH2 0x312 SWAP2 SWAP1 PUSH2 0x1399 JUMP JUMPDEST PUSH1 0x40 MLOAD DUP1 SWAP2 SUB SWAP1 RETURN JUMPDEST PUSH2 0x335 PUSH1 0x4 DUP1 CALLDATASIZE SUB DUP2 ADD SWAP1 PUSH2 0x330 SWAP2 SWAP1 PUSH2 0x171B JUMP JUMPDEST PUSH2 0x999 JUMP JUMPDEST PUSH1 0x40 MLOAD PUSH2 0x346 SWAP6 SWAP5 SWAP4 SWAP3 SWAP2 SWAP1 PUSH2 0x1757 JUMP JUMPDEST PUSH1 0x40 MLOAD DUP1 SWAP2 SUB SWAP1 RETURN JUMPDEST PUSH2 0x357 PUSH2 0xAEF JUMP JUMPDEST PUSH1 0x40 MLOAD PUSH2 0x364 SWAP2 SWAP1 PUSH2 0x14E1 JUMP JUMPDEST PUSH1 0x40 MLOAD DUP1 SWAP2 SUB SWAP1 RETURN JUMPDEST PUSH2 0x387 PUSH1 0x4 DUP1 CALLDATASIZE SUB DUP2 ADD SWAP1 PUSH2 0x382 SWAP2 SWAP1 PUSH2 0x17D6 JUMP JUMPDEST PUSH2 0xAF6 JUMP JUMPDEST PUSH1 0x40 MLOAD PUSH2 0x394 SWAP2 SWAP1 PUSH2 0x15EA JUMP JUMPDEST PUSH1 0x40 MLOAD DUP1 SWAP2 SUB SWAP1 RETURN JUMPDEST PUSH2 0x3B7 PUSH1 0x4 DUP1 CALLDATASIZE SUB DUP2 ADD SWAP1 PUSH2 0x3B2 SWAP2 SWAP1 PUSH2 0x17D6 JUMP JUMPDEST PUSH2 0xB48 JUMP JUMPDEST PUSH1 0x40 MLOAD PUSH2 0x3C4 SWAP2 SWAP1 PUSH2 0x161E JUMP JUMPDEST PUSH1 0x40 MLOAD DUP1 SWAP2 SUB SWAP1 RETURN JUMPDEST PUSH2 0x3D5 PUSH2 0xBA8 JUMP JUMPDEST PUSH1 0x40 MLOAD PUSH2 0x3E2 SWAP2 SWAP1 PUSH2 0x14E1 JUMP JUMPDEST PUSH1 0x40 MLOAD DUP1 SWAP2 SUB SWAP1 RETURN JUMPDEST PUSH2 0x405 PUSH1 0x4 DUP1 CALLDATASIZE SUB DUP2 ADD SWAP1 PUSH2 0x400 SWAP2 SWAP1 PUSH2 0x155A JUMP JUMPDEST PUSH2 0xBCC JUMP JUMPDEST STOP JUMPDEST PUSH2 0x40F PUSH2 0xBED JUMP JUMPDEST PUSH1 0x40 MLOAD PUSH2 0x41D SWAP3 SWAP2 SWAP1 PUSH2 0x1835 JUMP JUMPDEST PUSH1 0x40 MLOAD DUP1 SWAP2 SUB SWAP1 RETURN JUMPDEST PUSH2 0x42E PUSH2 0xCF1 JUMP JUMPDEST PUSH1 0x40 MLOAD PUSH2 0x43F SWAP6 SWAP5 SWAP4 SWAP3 SWAP2 SWAP1 PUSH2 0x1757 JUMP JUMPDEST PUSH1 0x40 MLOAD DUP1 SWAP2 SUB SWAP1 RETURN JUMPDEST PUSH1 0x0 PUSH32 0x7965DB0B00000000000000000000000000000000000000000000000000000000 PUSH28 0xFFFFFFFFFFFFFFFFFFFFFFFFFFFFFFFFFFFFFFFFFFFFFFFFFFFFFFFF NOT AND DUP3 PUSH28 0xFFFFFFFFFFFFFFFFFFFFFFFFFFFFFFFFFFFFFFFFFFFFFFFFFFFFFFFF NOT AND EQ DUP1 PUSH2 0x4BB JUMPI POP PUSH2 0x4BA DUP3 PUSH2 0xDD4 JUMP JUMPDEST JUMPDEST SWAP1 POP SWAP2 SWAP1 POP JUMP JUMPDEST PUSH1 0x60 PUSH1 0x40 MLOAD DUP1 PUSH1 0x40 ADD PUSH1 0x40 MSTORE DUP1 PUSH1 0x13 DUP2 MSTORE PUSH1 0x20 ADD PUSH32 0x466C757850726963654665656420312E312E3000000000000000000000000000 DUP2 MSTORE POP SWAP1 POP SWAP1 JUMP JUMPDEST PUSH1 0x0 DUP1 PUSH1 0x0 DUP4 DUP2 MSTORE PUSH1 0x20 ADD SWAP1 DUP2 MSTORE PUSH1 0x20 ADD PUSH1 0x0 KECCAK256 PUSH1 0x1 ADD SLOAD SWAP1 POP SWAP2 SWAP1 POP JUMP JUMPDEST PUSH2 0x527 DUP3 PUSH2 0x4FF JUMP JUMPDEST PUSH2 0x530 DUP2 PUSH2 0xE3E JUMP JUMPDEST PUSH2 0x53A DUP4 DUP4 PUSH2 0xE52 JUMP JUMPDEST POP POP POP JUMP JUMPDEST PUSH32 0x0 DUP2 JUMP JUMPDEST PUSH2 0x56B PUSH2 0xF32 JUMP JUMPDEST PUSH20 0xFFFFFFFFFFFFFFFFFFFFFFFFFFFFFFFFFFFFFFFF AND DUP2 PUSH20 0xFFFFFFFFFFFFFFFFFFFFFFFFFFFFFFFFFFFFFFFF AND EQ PUSH2 0x5D8 JUMPI PUSH1 0x40 MLOAD PUSH32 0x8C379A000000000000000000000000000000000000000000000000000000000 DUP2 MSTORE PUSH1 0x4 ADD PUSH2 0x5CF SWAP1 PUSH2 0x18D0 JUMP JUMPDEST PUSH1 0x40 MLOAD DUP1 SWAP2 SUB SWAP1 REVERT JUMPDEST PUSH2 0x5E2 DUP3 DUP3 PUSH2 0xF3A JUMP JUMPDEST POP POP JUMP JUMPDEST PUSH1 0x0 PUSH1 0x2 PUSH1 0x0 PUSH1 0x1 PUSH1 0x0 SWAP1 SLOAD SWAP1 PUSH2 0x100 EXP SWAP1 DIV PUSH4 0xFFFFFFFF AND PUSH4 0xFFFFFFFF AND PUSH4 0xFFFFFFFF AND DUP2 MSTORE PUSH1 0x20 ADD SWAP1 DUP2 MSTORE PUSH1 0x20 ADD PUSH1 0x0 KECCAK256 PUSH1 0x0 ADD PUSH1 0x0 SWAP1 SLOAD SWAP1 PUSH2 0x100 EXP SWAP1 DIV PUSH1 0x17 SIGNEXTEND PUSH1 0x17 SIGNEXTEND SWAP1 POP SWAP1 JUMP JUMPDEST PUSH1 0x1 DUP2 JUMP JUMPDEST PUSH1 0x1 PUSH1 0x0 SWAP1 SLOAD SWAP1 PUSH2 0x100 EXP SWAP1 DIV PUSH4 0xFFFFFFFF AND DUP2 JUMP JUMPDEST PUSH1 0x0 PUSH1 0x1 PUSH1 0x0 SWAP1 SLOAD SWAP1 PUSH2 0x100 EXP SWAP1 DIV PUSH4 0xFFFFFFFF AND PUSH4 0xFFFFFFFF AND SWAP1 POP SWAP1 JUMP JUMPDEST PUSH1 0x60 PUSH1 0x3 DUP1 SLOAD PUSH2 0x67C SWAP1 PUSH2 0x191F JUMP JUMPDEST DUP1 PUSH1 0x1F ADD PUSH1 0x20 DUP1 SWAP2 DIV MUL PUSH1 0x20 ADD PUSH1 0x40 MLOAD SWAP1 DUP2 ADD PUSH1 0x40 MSTORE DUP1 SWAP3 SWAP2 SWAP1 DUP2 DUP2 MSTORE PUSH1 0x20 ADD DUP3 DUP1 SLOAD PUSH2 0x6A8 SWAP1 PUSH2 0x191F JUMP JUMPDEST DUP1 ISZERO PUSH2 0x6F5 JUMPI DUP1 PUSH1 0x1F LT PUSH2 0x6CA JUMPI PUSH2 0x100 DUP1 DUP4 SLOAD DIV MUL DUP4 MSTORE SWAP2 PUSH1 0x20 ADD SWAP2 PUSH2 0x6F5 JUMP JUMPDEST DUP3 ADD SWAP2 SWAP1 PUSH1 0x0 MSTORE PUSH1 0x20 PUSH1 0x0 KECCAK256 SWAP1 JUMPDEST DUP2 SLOAD DUP2 MSTORE SWAP1 PUSH1 0x1 ADD SWAP1 PUSH1 0x20 ADD DUP1 DUP4 GT PUSH2 0x6D8 JUMPI DUP3 SWAP1 SUB PUSH1 0x1F AND DUP3 ADD SWAP2 JUMPDEST POP POP POP POP POP SWAP1 POP SWAP1 JUMP JUMPDEST PUSH1 0x0 PUSH1 0x2 PUSH1 0x0 PUSH1 0x1 PUSH1 0x0 SWAP1 SLOAD SWAP1 PUSH2 0x100 EXP SWAP1 DIV PUSH4 0xFFFFFFFF AND PUSH4 0xFFFFFFFF AND PUSH4 0xFFFFFFFF AND DUP2 MSTORE PUSH1 0x20 ADD SWAP1 DUP2 MSTORE PUSH1 0x20 ADD PUSH1 0x0 KECCAK256 PUSH1 0x0 ADD PUSH1 0x18 SWAP1 SLOAD SWAP1 PUSH2 0x100 EXP SWAP1 DIV PUSH8 0xFFFFFFFFFFFFFFFF AND PUSH8 0xFFFFFFFFFFFFFFFF AND SWAP1 POP SWAP1 JUMP JUMPDEST PUSH2 0x783 PUSH32 0x21702C8AF46127C7FA207F89D0B0A8441BB32959A0AC7DF790E9AB1A25C98926 CALLER PUSH2 0x92F JUMP JUMPDEST PUSH2 0x7C2 JUMPI PUSH1 0x40 MLOAD PUSH32 0x8C379A000000000000000000000000000000000000000000000000000000000 DUP2 MSTORE PUSH1 0x4 ADD PUSH2 0x7B9 SWAP1 PUSH2 0x199D JUMP JUMPDEST PUSH1 0x40 MLOAD DUP1 SWAP2 SUB SWAP1 REVERT JUMPDEST PUSH1 0x1 PUSH1 0x0 DUP2 DUP2 SWAP1 SLOAD SWAP1 PUSH2 0x100 EXP SWAP1 DIV PUSH4 0xFFFFFFFF AND DUP1 SWAP3 SWAP2 SWAP1 PUSH2 0x7E4 SWAP1 PUSH2 0x19EC JUMP JUMPDEST SWAP2 SWAP1 PUSH2 0x100 EXP DUP2 SLOAD DUP2 PUSH4 0xFFFFFFFF MUL NOT AND SWAP1 DUP4 PUSH4 0xFFFFFFFF AND MUL OR SWAP1 SSTORE POP POP PUSH1 0x40 MLOAD DUP1 PUSH1 0x40 ADD PUSH1 0x40 MSTORE DUP1 DUP3 PUSH1 0x17 SIGNEXTEND DUP2 MSTORE PUSH1 0x20 ADD TIMESTAMP PUSH8 0xFFFFFFFFFFFFFFFF AND DUP2 MSTORE POP PUSH1 0x2 PUSH1 0x0 PUSH1 0x1 PUSH1 0x0 SWAP1 SLOAD SWAP1 PUSH2 0x100 EXP SWAP1 DIV PUSH4 0xFFFFFFFF AND PUSH4 0xFFFFFFFF AND PUSH4 0xFFFFFFFF AND DUP2 MSTORE PUSH1 0x20 ADD SWAP1 DUP2 MSTORE PUSH1 0x20 ADD PUSH1 0x0 KECCAK256 PUSH1 0x0 DUP3 ADD MLOAD DUP2 PUSH1 0x0 ADD PUSH1 0x0 PUSH2 0x100 EXP DUP2 SLOAD DUP2 PUSH24 0xFFFFFFFFFFFFFFFFFFFFFFFFFFFFFFFFFFFFFFFFFFFFFFFF MUL NOT AND SWAP1 DUP4 PUSH1 0x17 SIGNEXTEND PUSH24 0xFFFFFFFFFFFFFFFFFFFFFFFFFFFFFFFFFFFFFFFFFFFFFFFF AND MUL OR SWAP1 SSTORE POP PUSH1 0x20 DUP3 ADD MLOAD DUP2 PUSH1 0x0 ADD PUSH1 0x18 PUSH2 0x100 EXP DUP2 SLOAD DUP2 PUSH8 0xFFFFFFFFFFFFFFFF MUL NOT AND SWAP1 DUP4 PUSH8 0xFFFFFFFFFFFFFFFF AND MUL OR SWAP1 SSTORE POP SWAP1 POP POP PUSH1 0x1 PUSH1 0x0 SWAP1 SLOAD SWAP1 PUSH2 0x100 EXP SWAP1 DIV PUSH4 0xFFFFFFFF AND PUSH4 0xFFFFFFFF AND PUSH32 0x17EABD0A66FA631F7537CEFDD5DF6AA25D5AC904CF7596E958D43A75A00D0D68 DUP3 CALLER PUSH1 0x40 MLOAD PUSH2 0x924 SWAP3 SWAP2 SWAP1 PUSH2 0x1A28 JUMP JUMPDEST PUSH1 0x40 MLOAD DUP1 SWAP2 SUB SWAP1 LOG2 POP JUMP JUMPDEST PUSH1 0x0 DUP1 PUSH1 0x0 DUP5 DUP2 MSTORE PUSH1 0x20 ADD SWAP1 DUP2 MSTORE PUSH1 0x20 ADD PUSH1 0x0 KECCAK256 PUSH1 0x0 ADD PUSH1 0x0 DUP4 PUSH20 0xFFFFFFFFFFFFFFFFFFFFFFFFFFFFFFFFFFFFFFFF AND PUSH20 0xFFFFFFFFFFFFFFFFFFFFFFFFFFFFFFFFFFFFFFFF AND DUP2 MSTORE PUSH1 0x20 ADD SWAP1 DUP2 MSTORE PUSH1 0x20 ADD PUSH1 0x0 KECCAK256 PUSH1 0x0 SWAP1 SLOAD SWAP1 PUSH2 0x100 EXP SWAP1 DIV PUSH1 0xFF AND SWAP1 POP SWAP3 SWAP2 POP POP JUMP JUMPDEST PUSH1 0x0 DUP1 PUSH1 0x0 DUP1 PUSH1 0x0 PUSH4 0xFFFFFFFF DUP7 PUSH10 0xFFFFFFFFFFFFFFFFFFFF AND GT ISZERO PUSH1 0x40 MLOAD DUP1 PUSH1 0x40 ADD PUSH1 0x40 MSTORE DUP1 PUSH1 0xF DUP2 MSTORE PUSH1 0x20 ADD PUSH32 0x4E6F20646174612070726573656E740000000000000000000000000000000000 DUP2 MSTORE POP SWAP1 PUSH2 0xA2C JUMPI PUSH1 0x40 MLOAD PUSH32 0x8C379A000000000000000000000000000000000000000000000000000000000 DUP2 MSTORE PUSH1 0x4 ADD PUSH2 0xA23 SWAP2 SWAP1 PUSH2 0x144D JUMP JUMPDEST PUSH1 0x40 MLOAD DUP1 SWAP2 SUB SWAP1 REVERT JUMPDEST POP PUSH1 0x0 PUSH1 0x2 PUSH1 0x0 DUP9 PUSH4 0xFFFFFFFF AND PUSH4 0xFFFFFFFF AND DUP2 MSTORE PUSH1 0x20 ADD SWAP1 DUP2 MSTORE PUSH1 0x20 ADD PUSH1 0x0 KECCAK256 PUSH1 0x40 MLOAD DUP1 PUSH1 0x40 ADD PUSH1 0x40 MSTORE SWAP1 DUP2 PUSH1 0x0 DUP3 ADD PUSH1 0x0 SWAP1 SLOAD SWAP1 PUSH2 0x100 EXP SWAP1 DIV PUSH1 0x17 SIGNEXTEND PUSH1 0x17 SIGNEXTEND PUSH1 0x17 SIGNEXTEND DUP2 MSTORE PUSH1 0x20 ADD PUSH1 0x0 DUP3 ADD PUSH1 0x18 SWAP1 SLOAD SWAP1 PUSH2 0x100 EXP SWAP1 DIV PUSH8 0xFFFFFFFFFFFFFFFF AND PUSH8 0xFFFFFFFFFFFFFFFF AND PUSH8 0xFFFFFFFFFFFFFFFF AND DUP2 MSTORE POP POP SWAP1 POP DUP7 DUP2 PUSH1 0x0 ADD MLOAD DUP3 PUSH1 0x20 ADD MLOAD DUP4 PUSH1 0x20 ADD MLOAD DUP11 DUP4 PUSH1 0x17 SIGNEXTEND SWAP4 POP DUP3 PUSH8 0xFFFFFFFFFFFFFFFF AND SWAP3 POP DUP2 PUSH8 0xFFFFFFFFFFFFFFFF AND SWAP2 POP SWAP6 POP SWAP6 POP SWAP6 POP SWAP6 POP SWAP6 POP POP SWAP2 SWAP4 SWAP6 SWAP1 SWAP3 SWAP5 POP JUMP JUMPDEST PUSH1 0x0 DUP1 SHL DUP2 JUMP JUMPDEST PUSH1 0x0 PUSH4 0xFFFFFFFF DUP3 GT ISZERO PUSH2 0xB0D JUMPI PUSH1 0x0 SWAP1 POP PUSH2 0xB43 JUMP JUMPDEST PUSH1 0x2 PUSH1 0x0 DUP4 PUSH4 0xFFFFFFFF AND PUSH4 0xFFFFFFFF AND DUP2 MSTORE PUSH1 0x20 ADD SWAP1 DUP2 MSTORE PUSH1 0x20 ADD PUSH1 0x0 KECCAK256 PUSH1 0x0 ADD PUSH1 0x0 SWAP1 SLOAD SWAP1 PUSH2 0x100 EXP SWAP1 DIV PUSH1 0x17 SIGNEXTEND PUSH1 0x17 SIGNEXTEND SWAP1 POP JUMPDEST SWAP2 SWAP1 POP JUMP JUMPDEST PUSH1 0x0 PUSH4 0xFFFFFFFF DUP3 GT ISZERO PUSH2 0xB5F JUMPI PUSH1 0x0 SWAP1 POP PUSH2 0xBA3 JUMP JUMPDEST PUSH1 0x2 PUSH1 0x0 DUP4 PUSH4 0xFFFFFFFF AND PUSH4 0xFFFFFFFF AND DUP2 MSTORE PUSH1 0x20 ADD SWAP1 DUP2 MSTORE PUSH1 0x20 ADD PUSH1 0x0 KECCAK256 PUSH1 0x0 ADD PUSH1 0x18 SWAP1 SLOAD SWAP1 PUSH2 0x100 EXP SWAP1 DIV PUSH8 0xFFFFFFFFFFFFFFFF AND PUSH8 0xFFFFFFFFFFFFFFFF AND SWAP1 POP JUMPDEST SWAP2 SWAP1 POP JUMP JUMPDEST PUSH32 0x21702C8AF46127C7FA207F89D0B0A8441BB32959A0AC7DF790E9AB1A25C98926 DUP2 JUMP JUMPDEST PUSH2 0xBD5 DUP3 PUSH2 0x4FF JUMP JUMPDEST PUSH2 0xBDE DUP2 PUSH2 0xE3E JUMP JUMPDEST PUSH2 0xBE8 DUP4 DUP4 PUSH2 0xF3A JUMP JUMPDEST POP POP POP JUMP JUMPDEST PUSH1 0x0 DUP1 ORIGIN PUSH20 0xFFFFFFFFFFFFFFFFFFFFFFFFFFFFFFFFFFFFFFFF AND CALLER PUSH20 0xFFFFFFFFFFFFFFFFFFFFFFFFFFFFFFFFFFFFFFFF AND EQ PUSH2 0xC5E JUMPI PUSH1 0x40 MLOAD PUSH32 0x8C379A000000000000000000000000000000000000000000000000000000000 DUP2 MSTORE PUSH1 0x4 ADD PUSH2 0xC55 SWAP1 PUSH2 0x1A9D JUMP JUMPDEST PUSH1 0x40 MLOAD DUP1 SWAP2 SUB SWAP1 REVERT JUMPDEST PUSH1 0x2 PUSH1 0x0 PUSH1 0x1 PUSH1 0x0 SWAP1 SLOAD SWAP1 PUSH2 0x100 EXP SWAP1 DIV PUSH4 0xFFFFFFFF AND PUSH4 0xFFFFFFFF AND PUSH4 0xFFFFFFFF AND DUP2 MSTORE PUSH1 0x20 ADD SWAP1 DUP2 MSTORE PUSH1 0x20 ADD PUSH1 0x0 KECCAK256 PUSH1 0x0 ADD PUSH1 0x0 SWAP1 SLOAD SWAP1 PUSH2 0x100 EXP SWAP1 DIV PUSH1 0x17 SIGNEXTEND PUSH1 0x2 PUSH1 0x0 PUSH1 0x1 PUSH1 0x0 SWAP1 SLOAD SWAP1 PUSH2 0x100 EXP SWAP1 DIV PUSH4 0xFFFFFFFF AND PUSH4 0xFFFFFFFF AND PUSH4 0xFFFFFFFF AND DUP2 MSTORE PUSH1 0x20 ADD SWAP1 DUP2 MSTORE PUSH1 0x20 ADD PUSH1 0x0 KECCAK256 PUSH1 0x0 ADD PUSH1 0x18 SWAP1 SLOAD SWAP1 PUSH2 0x100 EXP SWAP1 DIV PUSH8 0xFFFFFFFFFFFFFFFF AND SWAP2 POP SWAP2 POP SWAP1 SWAP2 JUMP JUMPDEST PUSH1 0x0 DUP1 PUSH1 0x0 DUP1 PUSH1 0x0 PUSH1 0x1 PUSH1 0x0 SWAP1 SLOAD SWAP1 PUSH2 0x100 EXP SWAP1 DIV PUSH4 0xFFFFFFFF AND PUSH4 0xFFFFFFFF AND SWAP5 POP PUSH1 0x0 PUSH1 0x2 PUSH1 0x0 DUP8 PUSH4 0xFFFFFFFF AND PUSH4 0xFFFFFFFF AND DUP2 MSTORE PUSH1 0x20 ADD SWAP1 DUP2 MSTORE PUSH1 0x20 ADD PUSH1 0x0 KECCAK256 PUSH1 0x40 MLOAD DUP1 PUSH1 0x40 ADD PUSH1 0x40 MSTORE SWAP1 DUP2 PUSH1 0x0 DUP3 ADD PUSH1 0x0 SWAP1 SLOAD SWAP1 PUSH2 0x100 EXP SWAP1 DIV PUSH1 0x17 SIGNEXTEND PUSH1 0x17 SIGNEXTEND PUSH1 0x17 SIGNEXTEND DUP2 MSTORE PUSH1 0x20 ADD PUSH1 0x0 DUP3 ADD PUSH1 0x18 SWAP1 SLOAD SWAP1 PUSH2 0x100 EXP SWAP1 DIV PUSH8 0xFFFFFFFFFFFFFFFF AND PUSH8 0xFFFFFFFFFFFFFFFF AND PUSH8 0xFFFFFFFFFFFFFFFF AND DUP2 MSTORE POP POP SWAP1 POP DUP6 DUP2 PUSH1 0x0 ADD MLOAD DUP3 PUSH1 0x20 ADD MLOAD DUP4 PUSH1 0x20 ADD MLOAD DUP10 DUP4 PUSH1 0x17 SIGNEXTEND SWAP4 POP DUP3 PUSH8 0xFFFFFFFFFFFFFFFF AND SWAP3 POP DUP2 PUSH8 0xFFFFFFFFFFFFFFFF AND SWAP2 POP SWAP6 POP SWAP6 POP SWAP6 POP SWAP6 POP SWAP6 POP POP SWAP1 SWAP2 SWAP3 SWAP4 SWAP5 JUMP JUMPDEST PUSH1 0x0 PUSH32 0x1FFC9A700000000000000000000000000000000000000000000000000000000 PUSH28 0xFFFFFFFFFFFFFFFFFFFFFFFFFFFFFFFFFFFFFFFFFFFFFFFFFFFFFFFF NOT AND DUP3 PUSH28 0xFFFFFFFFFFFFFFFFFFFFFFFFFFFFFFFFFFFFFFFFFFFFFFFFFFFFFFFF NOT AND EQ SWAP1 POP SWAP2 SWAP1 POP JUMP JUMPDEST PUSH2 0xE4F DUP2 PUSH2 0xE4A PUSH2 0xF32 JUMP JUMPDEST PUSH2 0x101B JUMP JUMPDEST POP JUMP JUMPDEST PUSH2 0xE5C DUP3 DUP3 PUSH2 0x92F JUMP JUMPDEST PUSH2 0xF2E JUMPI PUSH1 0x1 PUSH1 0x0 DUP1 DUP5 DUP2 MSTORE PUSH1 0x20 ADD SWAP1 DUP2 MSTORE PUSH1 0x20 ADD PUSH1 0x0 KECCAK256 PUSH1 0x0 ADD PUSH1 0x0 DUP4 PUSH20 0xFFFFFFFFFFFFFFFFFFFFFFFFFFFFFFFFFFFFFFFF AND PUSH20 0xFFFFFFFFFFFFFFFFFFFFFFFFFFFFFFFFFFFFFFFF AND DUP2 MSTORE PUSH1 0x20 ADD SWAP1 DUP2 MSTORE PUSH1 0x20 ADD PUSH1 0x0 KECCAK256 PUSH1 0x0 PUSH2 0x100 EXP DUP2 SLOAD DUP2 PUSH1 0xFF MUL NOT AND SWAP1 DUP4 ISZERO ISZERO MUL OR SWAP1 SSTORE POP PUSH2 0xED3 PUSH2 0xF32 JUMP JUMPDEST PUSH20 0xFFFFFFFFFFFFFFFFFFFFFFFFFFFFFFFFFFFFFFFF AND DUP2 PUSH20 0xFFFFFFFFFFFFFFFFFFFFFFFFFFFFFFFFFFFFFFFF AND DUP4 PUSH32 0x2F8788117E7EFF1D82E926EC794901D17C78024A50270940304540A733656F0D PUSH1 0x40 MLOAD PUSH1 0x40 MLOAD DUP1 SWAP2 SUB SWAP1 LOG4 JUMPDEST POP POP JUMP JUMPDEST PUSH1 0x0 CALLER SWAP1 POP SWAP1 JUMP JUMPDEST PUSH2 0xF44 DUP3 DUP3 PUSH2 0x92F JUMP JUMPDEST ISZERO PUSH2 0x1017 JUMPI PUSH1 0x0 DUP1 PUSH1 0x0 DUP5 DUP2 MSTORE PUSH1 0x20 ADD SWAP1 DUP2 MSTORE PUSH1 0x20 ADD PUSH1 0x0 KECCAK256 PUSH1 0x0 ADD PUSH1 0x0 DUP4 PUSH20 0xFFFFFFFFFFFFFFFFFFFFFFFFFFFFFFFFFFFFFFFF AND PUSH20 0xFFFFFFFFFFFFFFFFFFFFFFFFFFFFFFFFFFFFFFFF AND DUP2 MSTORE PUSH1 0x20 ADD SWAP1 DUP2 MSTORE PUSH1 0x20 ADD PUSH1 0x0 KECCAK256 PUSH1 0x0 PUSH2 0x100 EXP DUP2 SLOAD DUP2 PUSH1 0xFF MUL NOT AND SWAP1 DUP4 ISZERO ISZERO MUL OR SWAP1 SSTORE POP PUSH2 0xFBC PUSH2 0xF32 JUMP JUMPDEST PUSH20 0xFFFFFFFFFFFFFFFFFFFFFFFFFFFFFFFFFFFFFFFF AND DUP2 PUSH20 0xFFFFFFFFFFFFFFFFFFFFFFFFFFFFFFFFFFFFFFFF AND DUP4 PUSH32 0xF6391F5C32D9C69D2A47EA670B442974B53935D1EDC7FD64EB21E047A839171B PUSH1 0x40 MLOAD PUSH1 0x40 MLOAD DUP1 SWAP2 SUB SWAP1 LOG4 JUMPDEST POP POP JUMP JUMPDEST PUSH2 0x1025 DUP3 DUP3 PUSH2 0x92F JUMP JUMPDEST PUSH2 0x10B4 JUMPI PUSH2 0x104A DUP2 PUSH20 0xFFFFFFFFFFFFFFFFFFFFFFFFFFFFFFFFFFFFFFFF AND PUSH1 0x14 PUSH2 0x10B8 JUMP JUMPDEST PUSH2 0x1058 DUP4 PUSH1 0x0 SHR PUSH1 0x20 PUSH2 0x10B8 JUMP JUMPDEST PUSH1 0x40 MLOAD PUSH1 0x20 ADD PUSH2 0x1069 SWAP3 SWAP2 SWAP1 PUSH2 0x1B91 JUMP JUMPDEST PUSH1 0x40 MLOAD PUSH1 0x20 DUP2 DUP4 SUB SUB DUP2 MSTORE SWAP1 PUSH1 0x40 MSTORE PUSH1 0x40 MLOAD PUSH32 0x8C379A000000000000000000000000000000000000000000000000000000000 DUP2 MSTORE PUSH1 0x4 ADD PUSH2 0x10AB SWAP2 SWAP1 PUSH2 0x144D JUMP JUMPDEST PUSH1 0x40 MLOAD DUP1 SWAP2 SUB SWAP1 REVERT JUMPDEST POP POP JUMP JUMPDEST PUSH1 0x60 PUSH1 0x0 PUSH1 0x2 DUP4 PUSH1 0x2 PUSH2 0x10CB SWAP2 SWAP1 PUSH2 0x1BCB JUMP JUMPDEST PUSH2 0x10D5 SWAP2 SWAP1 PUSH2 0x1C25 JUMP JUMPDEST PUSH8 0xFFFFFFFFFFFFFFFF DUP2 GT ISZERO PUSH2 0x10EE JUMPI PUSH2 0x10ED PUSH2 0x1C7B JUMP JUMPDEST JUMPDEST PUSH1 0x40 MLOAD SWAP1 DUP1 DUP3 MSTORE DUP1 PUSH1 0x1F ADD PUSH1 0x1F NOT AND PUSH1 0x20 ADD DUP3 ADD PUSH1 0x40 MSTORE DUP1 ISZERO PUSH2 0x1120 JUMPI DUP2 PUSH1 0x20 ADD PUSH1 0x1 DUP3 MUL DUP1 CALLDATASIZE DUP4 CALLDATACOPY DUP1 DUP3 ADD SWAP2 POP POP SWAP1 POP JUMPDEST POP SWAP1 POP PUSH32 0x3000000000000000000000000000000000000000000000000000000000000000 DUP2 PUSH1 0x0 DUP2 MLOAD DUP2 LT PUSH2 0x1158 JUMPI PUSH2 0x1157 PUSH2 0x1CAA JUMP JUMPDEST JUMPDEST PUSH1 0x20 ADD ADD SWAP1 PUSH31 0xFFFFFFFFFFFFFFFFFFFFFFFFFFFFFFFFFFFFFFFFFFFFFFFFFFFFFFFFFFFFFF NOT AND SWAP1 DUP2 PUSH1 0x0 BYTE SWAP1 MSTORE8 POP PUSH32 0x7800000000000000000000000000000000000000000000000000000000000000 DUP2 PUSH1 0x1 DUP2 MLOAD DUP2 LT PUSH2 0x11BC JUMPI PUSH2 0x11BB PUSH2 0x1CAA JUMP JUMPDEST JUMPDEST PUSH1 0x20 ADD ADD SWAP1 PUSH31 0xFFFFFFFFFFFFFFFFFFFFFFFFFFFFFFFFFFFFFFFFFFFFFFFFFFFFFFFFFFFFFF NOT AND SWAP1 DUP2 PUSH1 0x0 BYTE SWAP1 MSTORE8 POP PUSH1 0x0 PUSH1 0x1 DUP5 PUSH1 0x2 PUSH2 0x11FC SWAP2 SWAP1 PUSH2 0x1BCB JUMP JUMPDEST PUSH2 0x1206 SWAP2 SWAP1 PUSH2 0x1C25 JUMP JUMPDEST SWAP1 POP JUMPDEST PUSH1 0x1 DUP2 GT ISZERO PUSH2 0x12A6 JUMPI PUSH32 0x3031323334353637383961626364656600000000000000000000000000000000 PUSH1 0xF DUP7 AND PUSH1 0x10 DUP2 LT PUSH2 0x1248 JUMPI PUSH2 0x1247 PUSH2 0x1CAA JUMP JUMPDEST JUMPDEST BYTE PUSH1 0xF8 SHL DUP3 DUP3 DUP2 MLOAD DUP2 LT PUSH2 0x125F JUMPI PUSH2 0x125E PUSH2 0x1CAA JUMP JUMPDEST JUMPDEST PUSH1 0x20 ADD ADD SWAP1 PUSH31 0xFFFFFFFFFFFFFFFFFFFFFFFFFFFFFFFFFFFFFFFFFFFFFFFFFFFFFFFFFFFFFF NOT AND SWAP1 DUP2 PUSH1 0x0 BYTE SWAP1 MSTORE8 POP PUSH1 0x4 DUP6 SWAP1 SHR SWAP5 POP DUP1 PUSH2 0x129F SWAP1 PUSH2 0x1CD9 JUMP JUMPDEST SWAP1 POP PUSH2 0x1209 JUMP JUMPDEST POP PUSH1 0x0 DUP5 EQ PUSH2 0x12EA JUMPI PUSH1 0x40 MLOAD PUSH32 0x8C379A000000000000000000000000000000000000000000000000000000000 DUP2 MSTORE PUSH1 0x4 ADD PUSH2 0x12E1 SWAP1 PUSH2 0x1D4F JUMP JUMPDEST PUSH1 0x40 MLOAD DUP1 SWAP2 SUB SWAP1 REVERT JUMPDEST DUP1 SWAP2 POP POP SWAP3 SWAP2 POP POP JUMP JUMPDEST PUSH1 0x0 DUP1 REVERT JUMPDEST PUSH1 0x0 PUSH32 0xFFFFFFFF00000000000000000000000000000000000000000000000000000000 DUP3 AND SWAP1 POP SWAP2 SWAP1 POP JUMP JUMPDEST PUSH2 0x132E DUP2 PUSH2 0x12F9 JUMP JUMPDEST DUP2 EQ PUSH2 0x1339 JUMPI PUSH1 0x0 DUP1 REVERT JUMPDEST POP JUMP JUMPDEST PUSH1 0x0 DUP2 CALLDATALOAD SWAP1 POP PUSH2 0x134B DUP2 PUSH2 0x1325 JUMP JUMPDEST SWAP3 SWAP2 POP POP JUMP JUMPDEST PUSH1 0x0 PUSH1 0x20 DUP3 DUP5 SUB SLT ISZERO PUSH2 0x1367 JUMPI PUSH2 0x1366 PUSH2 0x12F4 JUMP JUMPDEST JUMPDEST PUSH1 0x0 PUSH2 0x1375 DUP5 DUP3 DUP6 ADD PUSH2 0x133C JUMP JUMPDEST SWAP2 POP POP SWAP3 SWAP2 POP POP JUMP JUMPDEST PUSH1 0x0 DUP2 ISZERO ISZERO SWAP1 POP SWAP2 SWAP1 POP JUMP JUMPDEST PUSH2 0x1393 DUP2 PUSH2 0x137E JUMP JUMPDEST DUP3 MSTORE POP POP JUMP JUMPDEST PUSH1 0x0 PUSH1 0x20 DUP3 ADD SWAP1 POP PUSH2 0x13AE PUSH1 0x0 DUP4 ADD DUP5 PUSH2 0x138A JUMP JUMPDEST SWAP3 SWAP2 POP POP JUMP JUMPDEST PUSH1 0x0 DUP2 MLOAD SWAP1 POP SWAP2 SWAP1 POP JUMP JUMPDEST PUSH1 0x0 DUP3 DUP3 MSTORE PUSH1 0x20 DUP3 ADD SWAP1 POP SWAP3 SWAP2 POP POP JUMP JUMPDEST PUSH1 0x0 JUMPDEST DUP4 DUP2 LT ISZERO PUSH2 0x13EE JUMPI DUP1 DUP3 ADD MLOAD DUP2 DUP5 ADD MSTORE PUSH1 0x20 DUP2 ADD SWAP1 POP PUSH2 0x13D3 JUMP JUMPDEST DUP4 DUP2 GT ISZERO PUSH2 0x13FD JUMPI PUSH1 0x0 DUP5 DUP5 ADD MSTORE JUMPDEST POP POP POP POP JUMP JUMPDEST PUSH1 0x0 PUSH1 0x1F NOT PUSH1 0x1F DUP4 ADD AND SWAP1 POP SWAP2 SWAP1 POP JUMP JUMPDEST PUSH1 0x0 PUSH2 0x141F DUP3 PUSH2 0x13B4 JUMP JUMPDEST PUSH2 0x1429 DUP2 DUP6 PUSH2 0x13BF JUMP JUMPDEST SWAP4 POP PUSH2 0x1439 DUP2 DUP6 PUSH1 0x20 DUP7 ADD PUSH2 0x13D0 JUMP JUMPDEST PUSH2 0x1442 DUP2 PUSH2 0x1403 JUMP JUMPDEST DUP5 ADD SWAP2 POP POP SWAP3 SWAP2 POP POP JUMP JUMPDEST PUSH1 0x0 PUSH1 0x20 DUP3 ADD SWAP1 POP DUP2 DUP2 SUB PUSH1 0x0 DUP4 ADD MSTORE PUSH2 0x1467 DUP2 DUP5 PUSH2 0x1414 JUMP JUMPDEST SWAP1 POP SWAP3 SWAP2 POP POP JUMP JUMPDEST PUSH1 0x0 DUP2 SWAP1 POP SWAP2 SWAP1 POP JUMP JUMPDEST PUSH2 0x1482 DUP2 PUSH2 0x146F JUMP JUMPDEST DUP2 EQ PUSH2 0x148D JUMPI PUSH1 0x0 DUP1 REVERT JUMPDEST POP JUMP JUMPDEST PUSH1 0x0 DUP2 CALLDATALOAD SWAP1 POP PUSH2 0x149F DUP2 PUSH2 0x1479 JUMP JUMPDEST SWAP3 SWAP2 POP POP JUMP JUMPDEST PUSH1 0x0 PUSH1 0x20 DUP3 DUP5 SUB SLT ISZERO PUSH2 0x14BB JUMPI PUSH2 0x14BA PUSH2 0x12F4 JUMP JUMPDEST JUMPDEST PUSH1 0x0 PUSH2 0x14C9 DUP5 DUP3 DUP6 ADD PUSH2 0x1490 JUMP JUMPDEST SWAP2 POP POP SWAP3 SWAP2 POP POP JUMP JUMPDEST PUSH2 0x14DB DUP2 PUSH2 0x146F JUMP JUMPDEST DUP3 MSTORE POP POP JUMP JUMPDEST PUSH1 0x0 PUSH1 0x20 DUP3 ADD SWAP1 POP PUSH2 0x14F6 PUSH1 0x0 DUP4 ADD DUP5 PUSH2 0x14D2 JUMP JUMPDEST SWAP3 SWAP2 POP POP JUMP JUMPDEST PUSH1 0x0 PUSH20 0xFFFFFFFFFFFFFFFFFFFFFFFFFFFFFFFFFFFFFFFF DUP3 AND SWAP1 POP SWAP2 SWAP1 POP JUMP JUMPDEST PUSH1 0x0 PUSH2 0x1527 DUP3 PUSH2 0x14FC JUMP JUMPDEST SWAP1 POP SWAP2 SWAP1 POP JUMP JUMPDEST PUSH2 0x1537 DUP2 PUSH2 0x151C JUMP JUMPDEST DUP2 EQ PUSH2 0x1542 JUMPI PUSH1 0x0 DUP1 REVERT JUMPDEST POP JUMP JUMPDEST PUSH1 0x0 DUP2 CALLDATALOAD SWAP1 POP PUSH2 0x1554 DUP2 PUSH2 0x152E JUMP JUMPDEST SWAP3 SWAP2 POP POP JUMP JUMPDEST PUSH1 0x0 DUP1 PUSH1 0x40 DUP4 DUP6 SUB SLT ISZERO PUSH2 0x1571 JUMPI PUSH2 0x1570 PUSH2 0x12F4 JUMP JUMPDEST JUMPDEST PUSH1 0x0 PUSH2 0x157F DUP6 DUP3 DUP7 ADD PUSH2 0x1490 JUMP JUMPDEST SWAP3 POP POP PUSH1 0x20 PUSH2 0x1590 DUP6 DUP3 DUP7 ADD PUSH2 0x1545 JUMP JUMPDEST SWAP2 POP POP SWAP3 POP SWAP3 SWAP1 POP JUMP JUMPDEST PUSH1 0x0 PUSH1 0xFF DUP3 AND SWAP1 POP SWAP2 SWAP1 POP JUMP JUMPDEST PUSH2 0x15B0 DUP2 PUSH2 0x159A JUMP JUMPDEST DUP3 MSTORE POP POP JUMP JUMPDEST PUSH1 0x0 PUSH1 0x20 DUP3 ADD SWAP1 POP PUSH2 0x15CB PUSH1 0x0 DUP4 ADD DUP5 PUSH2 0x15A7 JUMP JUMPDEST SWAP3 SWAP2 POP POP JUMP JUMPDEST PUSH1 0x0 DUP2 SWAP1 POP SWAP2 SWAP1 POP JUMP JUMPDEST PUSH2 0x15E4 DUP2 PUSH2 0x15D1 JUMP JUMPDEST DUP3 MSTORE POP POP JUMP JUMPDEST PUSH1 0x0 PUSH1 0x20 DUP3 ADD SWAP1 POP PUSH2 0x15FF PUSH1 0x0 DUP4 ADD DUP5 PUSH2 0x15DB JUMP JUMPDEST SWAP3 SWAP2 POP POP JUMP JUMPDEST PUSH1 0x0 DUP2 SWAP1 POP SWAP2 SWAP1 POP JUMP JUMPDEST PUSH2 0x1618 DUP2 PUSH2 0x1605 JUMP JUMPDEST DUP3 MSTORE POP POP JUMP JUMPDEST PUSH1 0x0 PUSH1 0x20 DUP3 ADD SWAP1 POP PUSH2 0x1633 PUSH1 0x0 DUP4 ADD DUP5 PUSH2 0x160F JUMP JUMPDEST SWAP3 SWAP2 POP POP JUMP JUMPDEST PUSH1 0x0 PUSH4 0xFFFFFFFF DUP3 AND SWAP1 POP SWAP2 SWAP1 POP JUMP JUMPDEST PUSH2 0x1652 DUP2 PUSH2 0x1639 JUMP JUMPDEST DUP3 MSTORE POP POP JUMP JUMPDEST PUSH1 0x0 PUSH1 0x20 DUP3 ADD SWAP1 POP PUSH2 0x166D PUSH1 0x0 DUP4 ADD DUP5 PUSH2 0x1649 JUMP JUMPDEST SWAP3 SWAP2 POP POP JUMP JUMPDEST PUSH1 0x0 DUP2 PUSH1 0x17 SIGNEXTEND SWAP1 POP SWAP2 SWAP1 POP JUMP JUMPDEST PUSH2 0x1689 DUP2 PUSH2 0x1673 JUMP JUMPDEST DUP2 EQ PUSH2 0x1694 JUMPI PUSH1 0x0 DUP1 REVERT JUMPDEST POP JUMP JUMPDEST PUSH1 0x0 DUP2 CALLDATALOAD SWAP1 POP PUSH2 0x16A6 DUP2 PUSH2 0x1680 JUMP JUMPDEST SWAP3 SWAP2 POP POP JUMP JUMPDEST PUSH1 0x0 PUSH1 0x20 DUP3 DUP5 SUB SLT ISZERO PUSH2 0x16C2 JUMPI PUSH2 0x16C1 PUSH2 0x12F4 JUMP JUMPDEST JUMPDEST PUSH1 0x0 PUSH2 0x16D0 DUP5 DUP3 DUP6 ADD PUSH2 0x1697 JUMP JUMPDEST SWAP2 POP POP SWAP3 SWAP2 POP POP JUMP JUMPDEST PUSH1 0x0 PUSH10 0xFFFFFFFFFFFFFFFFFFFF DUP3 AND SWAP1 POP SWAP2 SWAP1 POP JUMP JUMPDEST PUSH2 0x16F8 DUP2 PUSH2 0x16D9 JUMP JUMPDEST DUP2 EQ PUSH2 0x1703 JUMPI PUSH1 0x0 DUP1 REVERT JUMPDEST POP JUMP JUMPDEST PUSH1 0x0 DUP2 CALLDATALOAD SWAP1 POP PUSH2 0x1715 DUP2 PUSH2 0x16EF JUMP JUMPDEST SWAP3 SWAP2 POP POP JUMP JUMPDEST PUSH1 0x0 PUSH1 0x20 DUP3 DUP5 SUB SLT ISZERO PUSH2 0x1731 JUMPI PUSH2 0x1730 PUSH2 0x12F4 JUMP JUMPDEST JUMPDEST PUSH1 0x0 PUSH2 0x173F DUP5 DUP3 DUP6 ADD PUSH2 0x1706 JUMP JUMPDEST SWAP2 POP POP SWAP3 SWAP2 POP POP JUMP JUMPDEST PUSH2 0x1751 DUP2 PUSH2 0x16D9 JUMP JUMPDEST DUP3 MSTORE POP POP JUMP JUMPDEST PUSH1 0x0 PUSH1 0xA0 DUP3 ADD SWAP1 POP PUSH2 0x176C PUSH1 0x0 DUP4 ADD DUP9 PUSH2 0x1748 JUMP JUMPDEST PUSH2 0x1779 PUSH1 0x20 DUP4 ADD DUP8 PUSH2 0x15DB JUMP JUMPDEST PUSH2 0x1786 PUSH1 0x40 DUP4 ADD DUP7 PUSH2 0x160F JUMP JUMPDEST PUSH2 0x1793 PUSH1 0x60 DUP4 ADD DUP6 PUSH2 0x160F JUMP JUMPDEST PUSH2 0x17A0 PUSH1 0x80 DUP4 ADD DUP5 PUSH2 0x1748 JUMP JUMPDEST SWAP7 SWAP6 POP POP POP POP POP POP JUMP JUMPDEST PUSH2 0x17B3 DUP2 PUSH2 0x1605 JUMP JUMPDEST DUP2 EQ PUSH2 0x17BE JUMPI PUSH1 0x0 DUP1 REVERT JUMPDEST POP JUMP JUMPDEST PUSH1 0x0 DUP2 CALLDATALOAD SWAP1 POP PUSH2 0x17D0 DUP2 PUSH2 0x17AA JUMP JUMPDEST SWAP3 SWAP2 POP POP JUMP JUMPDEST PUSH1 0x0 PUSH1 0x20 DUP3 DUP5 SUB SLT ISZERO PUSH2 0x17EC JUMPI PUSH2 0x17EB PUSH2 0x12F4 JUMP JUMPDEST JUMPDEST PUSH1 0x0 PUSH2 0x17FA DUP5 DUP3 DUP6 ADD PUSH2 0x17C1 JUMP JUMPDEST SWAP2 POP POP SWAP3 SWAP2 POP POP JUMP JUMPDEST PUSH2 0x180C DUP2 PUSH2 0x1673 JUMP JUMPDEST DUP3 MSTORE POP POP JUMP JUMPDEST PUSH1 0x0 PUSH8 0xFFFFFFFFFFFFFFFF DUP3 AND SWAP1 POP SWAP2 SWAP1 POP JUMP JUMPDEST PUSH2 0x182F DUP2 PUSH2 0x1812 JUMP JUMPDEST DUP3 MSTORE POP POP JUMP JUMPDEST PUSH1 0x0 PUSH1 0x40 DUP3 ADD SWAP1 POP PUSH2 0x184A PUSH1 0x0 DUP4 ADD DUP6 PUSH2 0x1803 JUMP JUMPDEST PUSH2 0x1857 PUSH1 0x20 DUP4 ADD DUP5 PUSH2 0x1826 JUMP JUMPDEST SWAP4 SWAP3 POP POP POP JUMP JUMPDEST PUSH32 0x416363657373436F6E74726F6C3A2063616E206F6E6C792072656E6F756E6365 PUSH1 0x0 DUP3 ADD MSTORE PUSH32 0x20726F6C657320666F722073656C660000000000000000000000000000000000 PUSH1 0x20 DUP3 ADD MSTORE POP JUMP JUMPDEST PUSH1 0x0 PUSH2 0x18BA PUSH1 0x2F DUP4 PUSH2 0x13BF JUMP JUMPDEST SWAP2 POP PUSH2 0x18C5 DUP3 PUSH2 0x185E JUMP JUMPDEST PUSH1 0x40 DUP3 ADD SWAP1 POP SWAP2 SWAP1 POP JUMP JUMPDEST PUSH1 0x0 PUSH1 0x20 DUP3 ADD SWAP1 POP DUP2 DUP2 SUB PUSH1 0x0 DUP4 ADD MSTORE PUSH2 0x18E9 DUP2 PUSH2 0x18AD JUMP JUMPDEST SWAP1 POP SWAP2 SWAP1 POP JUMP JUMPDEST PUSH32 0x4E487B7100000000000000000000000000000000000000000000000000000000 PUSH1 0x0 MSTORE PUSH1 0x22 PUSH1 0x4 MSTORE PUSH1 0x24 PUSH1 0x0 REVERT JUMPDEST PUSH1 0x0 PUSH1 0x2 DUP3 DIV SWAP1 POP PUSH1 0x1 DUP3 AND DUP1 PUSH2 0x1937 JUMPI PUSH1 0x7F DUP3 AND SWAP2 POP JUMPDEST PUSH1 0x20 DUP3 LT DUP2 EQ ISZERO PUSH2 0x194B JUMPI PUSH2 0x194A PUSH2 0x18F0 JUMP JUMPDEST JUMPDEST POP SWAP2 SWAP1 POP JUMP JUMPDEST PUSH32 0x43616C6C6572206973206E6F7420612076616C696461746F7200000000000000 PUSH1 0x0 DUP3 ADD MSTORE POP JUMP JUMPDEST PUSH1 0x0 PUSH2 0x1987 PUSH1 0x19 DUP4 PUSH2 0x13BF JUMP JUMPDEST SWAP2 POP PUSH2 0x1992 DUP3 PUSH2 0x1951 JUMP JUMPDEST PUSH1 0x20 DUP3 ADD SWAP1 POP SWAP2 SWAP1 POP JUMP JUMPDEST PUSH1 0x0 PUSH1 0x20 DUP3 ADD SWAP1 POP DUP2 DUP2 SUB PUSH1 0x0 DUP4 ADD MSTORE PUSH2 0x19B6 DUP2 PUSH2 0x197A JUMP JUMPDEST SWAP1 POP SWAP2 SWAP1 POP JUMP JUMPDEST PUSH32 0x4E487B7100000000000000000000000000000000000000000000000000000000 PUSH1 0x0 MSTORE PUSH1 0x11 PUSH1 0x4 MSTORE PUSH1 0x24 PUSH1 0x0 REVERT JUMPDEST PUSH1 0x0 PUSH2 0x19F7 DUP3 PUSH2 0x1639 JUMP JUMPDEST SWAP2 POP PUSH4 0xFFFFFFFF DUP3 EQ ISZERO PUSH2 0x1A0E JUMPI PUSH2 0x1A0D PUSH2 0x19BD JUMP JUMPDEST JUMPDEST PUSH1 0x1 DUP3 ADD SWAP1 POP SWAP2 SWAP1 POP JUMP JUMPDEST PUSH2 0x1A22 DUP2 PUSH2 0x151C JUMP JUMPDEST DUP3 MSTORE POP POP JUMP JUMPDEST PUSH1 0x0 PUSH1 0x40 DUP3 ADD SWAP1 POP PUSH2 0x1A3D PUSH1 0x0 DUP4 ADD DUP6 PUSH2 0x1803 JUMP JUMPDEST PUSH2 0x1A4A PUSH1 0x20 DUP4 ADD DUP5 PUSH2 0x1A19 JUMP JUMPDEST SWAP4 SWAP3 POP POP POP JUMP JUMPDEST PUSH32 0x4F6E6C792063616C6C61626C6520627920454F41000000000000000000000000 PUSH1 0x0 DUP3 ADD MSTORE POP JUMP JUMPDEST PUSH1 0x0 PUSH2 0x1A87 PUSH1 0x14 DUP4 PUSH2 0x13BF JUMP JUMPDEST SWAP2 POP PUSH2 0x1A92 DUP3 PUSH2 0x1A51 JUMP JUMPDEST PUSH1 0x20 DUP3 ADD SWAP1 POP SWAP2 SWAP1 POP JUMP JUMPDEST PUSH1 0x0 PUSH1 0x20 DUP3 ADD SWAP1 POP DUP2 DUP2 SUB PUSH1 0x0 DUP4 ADD MSTORE PUSH2 0x1AB6 DUP2 PUSH2 0x1A7A JUMP JUMPDEST SWAP1 POP SWAP2 SWAP1 POP JUMP JUMPDEST PUSH1 0x0 DUP2 SWAP1 POP SWAP3 SWAP2 POP POP JUMP JUMPDEST PUSH32 0x416363657373436F6E74726F6C3A206163636F756E7420000000000000000000 PUSH1 0x0 DUP3 ADD MSTORE POP JUMP JUMPDEST PUSH1 0x0 PUSH2 0x1AFE PUSH1 0x17 DUP4 PUSH2 0x1ABD JUMP JUMPDEST SWAP2 POP PUSH2 0x1B09 DUP3 PUSH2 0x1AC8 JUMP JUMPDEST PUSH1 0x17 DUP3 ADD SWAP1 POP SWAP2 SWAP1 POP JUMP JUMPDEST PUSH1 0x0 PUSH2 0x1B1F DUP3 PUSH2 0x13B4 JUMP JUMPDEST PUSH2 0x1B29 DUP2 DUP6 PUSH2 0x1ABD JUMP JUMPDEST SWAP4 POP PUSH2 0x1B39 DUP2 DUP6 PUSH1 0x20 DUP7 ADD PUSH2 0x13D0 JUMP JUMPDEST DUP1 DUP5 ADD SWAP2 POP POP SWAP3 SWAP2 POP POP JUMP JUMPDEST PUSH32 0x206973206D697373696E6720726F6C6520000000000000000000000000000000 PUSH1 0x0 DUP3 ADD MSTORE POP JUMP JUMPDEST PUSH1 0x0 PUSH2 0x1B7B PUSH1 0x11 DUP4 PUSH2 0x1ABD JUMP JUMPDEST SWAP2 POP PUSH2 0x1B86 DUP3 PUSH2 0x1B45 JUMP JUMPDEST PUSH1 0x11 DUP3 ADD SWAP1 POP SWAP2 SWAP1 POP JUMP JUMPDEST PUSH1 0x0 PUSH2 0x1B9C DUP3 PUSH2 0x1AF1 JUMP JUMPDEST SWAP2 POP PUSH2 0x1BA8 DUP3 DUP6 PUSH2 0x1B14 JUMP JUMPDEST SWAP2 POP PUSH2 0x1BB3 DUP3 PUSH2 0x1B6E JUMP JUMPDEST SWAP2 POP PUSH2 0x1BBF DUP3 DUP5 PUSH2 0x1B14 JUMP JUMPDEST SWAP2 POP DUP2 SWAP1 POP SWAP4 SWAP3 POP POP POP JUMP JUMPDEST PUSH1 0x0 PUSH2 0x1BD6 DUP3 PUSH2 0x1605 JUMP JUMPDEST SWAP2 POP PUSH2 0x1BE1 DUP4 PUSH2 0x1605 JUMP JUMPDEST SWAP3 POP DUP2 PUSH32 0xFFFFFFFFFFFFFFFFFFFFFFFFFFFFFFFFFFFFFFFFFFFFFFFFFFFFFFFFFFFFFFFF DIV DUP4 GT DUP3 ISZERO ISZERO AND ISZERO PUSH2 0x1C1A JUMPI PUSH2 0x1C19 PUSH2 0x19BD JUMP JUMPDEST JUMPDEST DUP3 DUP3 MUL SWAP1 POP SWAP3 SWAP2 POP POP JUMP JUMPDEST PUSH1 0x0 PUSH2 0x1C30 DUP3 PUSH2 0x1605 JUMP JUMPDEST SWAP2 POP PUSH2 0x1C3B DUP4 PUSH2 0x1605 JUMP JUMPDEST SWAP3 POP DUP3 PUSH32 0xFFFFFFFFFFFFFFFFFFFFFFFFFFFFFFFFFFFFFFFFFFFFFFFFFFFFFFFFFFFFFFFF SUB DUP3 GT ISZERO PUSH2 0x1C70 JUMPI PUSH2 0x1C6F PUSH2 0x19BD JUMP JUMPDEST JUMPDEST DUP3 DUP3 ADD SWAP1 POP SWAP3 SWAP2 POP POP JUMP JUMPDEST PUSH32 0x4E487B7100000000000000000000000000000000000000000000000000000000 PUSH1 0x0 MSTORE PUSH1 0x41 PUSH1 0x4 MSTORE PUSH1 0x24 PUSH1 0x0 REVERT JUMPDEST PUSH32 0x4E487B7100000000000000000000000000000000000000000000000000000000 PUSH1 0x0 MSTORE PUSH1 0x32 PUSH1 0x4 MSTORE PUSH1 0x24 PUSH1 0x0 REVERT JUMPDEST PUSH1 0x0 PUSH2 0x1CE4 DUP3 PUSH2 0x1605 JUMP JUMPDEST SWAP2 POP PUSH1 0x0 DUP3 EQ ISZERO PUSH2 0x1CF8 JUMPI PUSH2 0x1CF7 PUSH2 0x19BD JUMP JUMPDEST JUMPDEST PUSH1 0x1 DUP3 SUB SWAP1 POP SWAP2 SWAP1 POP JUMP JUMPDEST PUSH32 0x537472696E67733A20686578206C656E67746820696E73756666696369656E74 PUSH1 0x0 DUP3 ADD MSTORE POP JUMP JUMPDEST PUSH1 0x0 PUSH2 0x1D39 PUSH1 0x20 DUP4 PUSH2 0x13BF JUMP JUMPDEST SWAP2 POP PUSH2 0x1D44 DUP3 PUSH2 0x1D03 JUMP JUMPDEST PUSH1 0x20 DUP3 ADD SWAP1 POP SWAP2 SWAP1 POP JUMP JUMPDEST PUSH1 0x0 PUSH1 0x20 DUP3 ADD SWAP1 POP DUP2 DUP2 SUB PUSH1 0x0 DUP4 ADD MSTORE PUSH2 0x1D68 DUP2 PUSH2 0x1D2C JUMP JUMPDEST SWAP1 POP SWAP2 SWAP1 POP JUMP INVALID LOG2 PUSH5 0x6970667358 0x22 SLT KECCAK256 0xB3 SIGNEXTEND PUSH16 0xC9B406A1E32220B4BF15F67FA9F7CAD6 EXP PUSH29 0x4E5637E34C0F87B47D306F64736F6C634300080B003300000000000000 "
		},
		"gasEstimates": {
			"creation": {
				"codeDepositCost": "1517800",
				"executionCost": "infinite",
				"totalCost": "infinite"
			},
			"external": {
				"DEFAULT_ADMIN_ROLE()": "446",
				"VALIDATOR_ROLE()": "395",
				"decimals()": "infinite",
				"description()": "infinite",
				"getAnswer(uint256)": "2893",
				"getRoleAdmin(bytes32)": "infinite",
				"getRoundData(uint80)": "infinite",
				"getTimestamp(uint256)": "infinite",
				"grantRole(bytes32,address)": "infinite",
				"hasRole(bytes32,address)": "3207",
				"latestAggregatorRoundId()": "2560",
				"latestAnswer()": "4760",
				"latestRound()": "2590",
				"latestRoundData()": "infinite",
				"latestTimestamp()": "4784",
				"latestTransmissionDetails()": "9396",
				"renounceRole(bytes32,address)": "infinite",
				"revokeRole(bytes32,address)": "infinite",
				"supportsInterface(bytes4)": "751",
				"transmit(int192)": "infinite",
				"typeAndVersion()": "infinite",
				"version()": "396"
			}
		},
		"methodIdentifiers": {
			"DEFAULT_ADMIN_ROLE()": "a217fddf",
			"VALIDATOR_ROLE()": "c49baebe",
			"decimals()": "313ce567",
			"description()": "7284e416",
			"getAnswer(uint256)": "b5ab58dc",
			"getRoleAdmin(bytes32)": "248a9ca3",
			"getRoundData(uint80)": "9a6fc8f5",
			"getTimestamp(uint256)": "b633620c",
			"grantRole(bytes32,address)": "2f2ff15d",
			"hasRole(bytes32,address)": "91d14854",
			"latestAggregatorRoundId()": "5ed63b40",
			"latestAnswer()": "50d25bcd",
			"latestRound()": "668a0f02",
			"latestRoundData()": "feaf968c",
			"latestTimestamp()": "8205bf6a",
			"latestTransmissionDetails()": "e5fe4577",
			"renounceRole(bytes32,address)": "36568abe",
			"revokeRole(bytes32,address)": "d547741f",
			"supportsInterface(bytes4)": "01ffc9a7",
			"transmit(int192)": "82b8ebc7",
			"typeAndVersion()": "181f5a77",
			"version()": "54fd4d50"
		}
	},
	"abi": [
		{
			"inputs": [
				{
					"internalType": "address",
					"name": "_validator",
					"type": "address"
				},
				{
					"internalType": "uint8",
					"name": "_decimals",
					"type": "uint8"
				},
				{
					"internalType": "string",
					"name": "__description",
					"type": "string"
				}
			],
			"stateMutability": "nonpayable",
			"type": "constructor"
		},
		{
			"anonymous": false,
			"inputs": [
				{
					"indexed": true,
					"internalType": "int256",
					"name": "current",
					"type": "int256"
				},
				{
					"indexed": true,
					"internalType": "uint256",
					"name": "roundId",
					"type": "uint256"
				},
				{
					"indexed": false,
					"internalType": "uint256",
					"name": "updatedAt",
					"type": "uint256"
				}
			],
			"name": "AnswerUpdated",
			"type": "event"
		},
		{
			"anonymous": false,
			"inputs": [
				{
					"indexed": true,
					"internalType": "uint256",
					"name": "roundId",
					"type": "uint256"
				},
				{
					"indexed": true,
					"internalType": "address",
					"name": "startedBy",
					"type": "address"
				},
				{
					"indexed": false,
					"internalType": "uint256",
					"name": "startedAt",
					"type": "uint256"
				}
			],
			"name": "NewRound",
			"type": "event"
		},
		{
			"anonymous": false,
			"inputs": [
				{
					"indexed": true,
					"internalType": "uint32",
					"name": "aggregatorRoundId",
					"type": "uint32"
				},
				{
					"indexed": false,
					"internalType": "int192",
					"name": "answer",
					"type": "int192"
				},
				{
					"indexed": false,
					"internalType": "address",
					"name": "transmitter",
					"type": "address"
				}
			],
			"name": "NewTransmission",
			"type": "event"
		},
		{
			"anonymous": false,
			"inputs": [
				{
					"indexed": true,
					"internalType": "bytes32",
					"name": "role",
					"type": "bytes32"
				},
				{
					"indexed": true,
					"internalType": "bytes32",
					"name": "previousAdminRole",
					"type": "bytes32"
				},
				{
					"indexed": true,
					"internalType": "bytes32",
					"name": "newAdminRole",
					"type": "bytes32"
				}
			],
			"name": "RoleAdminChanged",
			"type": "event"
		},
		{
			"anonymous": false,
			"inputs": [
				{
					"indexed": true,
					"internalType": "bytes32",
					"name": "role",
					"type": "bytes32"
				},
				{
					"indexed": true,
					"internalType": "address",
					"name": "account",
					"type": "address"
				},
				{
					"indexed": true,
					"internalType": "address",
					"name": "sender",
					"type": "address"
				}
			],
			"name": "RoleGranted",
			"type": "event"
		},
		{
			"anonymous": false,
			"inputs": [
				{
					"indexed": true,
					"internalType": "bytes32",
					"name": "role",
					"type": "bytes32"
				},
				{
					"indexed": true,
					"internalType": "address",
					"name": "account",
					"type": "address"
				},
				{
					"indexed": true,
					"internalType": "address",
					"name": "sender",
					"type": "address"
				}
			],
			"name": "RoleRevoked",
			"type": "event"
		},
		{
			"inputs": [],
			"name": "DEFAULT_ADMIN_ROLE",
			"outputs": [
				{
					"internalType": "bytes32",
					"name": "",
					"type": "bytes32"
				}
			],
			"stateMutability": "view",
			"type": "function"
		},
		{
			"inputs": [],
			"name": "VALIDATOR_ROLE",
			"outputs": [
				{
					"internalType": "bytes32",
					"name": "",
					"type": "bytes32"
				}
			],
			"stateMutability": "view",
			"type": "function"
		},
		{
			"inputs": [],
			"name": "decimals",
			"outputs": [
				{
					"internalType": "uint8",
					"name": "",
					"type": "uint8"
				}
			],
			"stateMutability": "view",
			"type": "function"
		},
		{
			"inputs": [],
			"name": "description",
			"outputs": [
				{
					"internalType": "string",
					"name": "",
					"type": "string"
				}
			],
			"stateMutability": "view",
			"type": "function"
		},
		{
			"inputs": [
				{
					"internalType": "uint256",
					"name": "_roundId",
					"type": "uint256"
				}
			],
			"name": "getAnswer",
			"outputs": [
				{
					"internalType": "int256",
					"name": "",
					"type": "int256"
				}
			],
			"stateMutability": "view",
			"type": "function"
		},
		{
			"inputs": [
				{
					"internalType": "bytes32",
					"name": "role",
					"type": "bytes32"
				}
			],
			"name": "getRoleAdmin",
			"outputs": [
				{
					"internalType": "bytes32",
					"name": "",
					"type": "bytes32"
				}
			],
			"stateMutability": "view",
			"type": "function"
		},
		{
			"inputs": [
				{
					"internalType": "uint80",
					"name": "_roundId",
					"type": "uint80"
				}
			],
			"name": "getRoundData",
			"outputs": [
				{
					"internalType": "uint80",
					"name": "roundId",
					"type": "uint80"
				},
				{
					"internalType": "int256",
					"name": "answer",
					"type": "int256"
				},
				{
					"internalType": "uint256",
					"name": "startedAt",
					"type": "uint256"
				},
				{
					"internalType": "uint256",
					"name": "updatedAt",
					"type": "uint256"
				},
				{
					"internalType": "uint80",
					"name": "answeredInRound",
					"type": "uint80"
				}
			],
			"stateMutability": "view",
			"type": "function"
		},
		{
			"inputs": [
				{
					"internalType": "uint256",
					"name": "_roundId",
					"type": "uint256"
				}
			],
			"name": "getTimestamp",
			"outputs": [
				{
					"internalType": "uint256",
					"name": "",
					"type": "uint256"
				}
			],
			"stateMutability": "view",
			"type": "function"
		},
		{
			"inputs": [
				{
					"internalType": "bytes32",
					"name": "role",
					"type": "bytes32"
				},
				{
					"internalType": "address",
					"name": "account",
					"type": "address"
				}
			],
			"name": "grantRole",
			"outputs": [],
			"stateMutability": "nonpayable",
			"type": "function"
		},
		{
			"inputs": [
				{
					"internalType": "bytes32",
					"name": "role",
					"type": "bytes32"
				},
				{
					"internalType": "address",
					"name": "account",
					"type": "address"
				}
			],
			"name": "hasRole",
			"outputs": [
				{
					"internalType": "bool",
					"name": "",
					"type": "bool"
				}
			],
			"stateMutability": "view",
			"type": "function"
		},
		{
			"inputs": [],
			"name": "latestAggregatorRoundId",
			"outputs": [
				{
					"internalType": "uint32",
					"name": "",
					"type": "uint32"
				}
			],
			"stateMutability": "view",
			"type": "function"
		},
		{
			"inputs": [],
			"name": "latestAnswer",
			"outputs": [
				{
					"internalType": "int256",
					"name": "",
					"type": "int256"
				}
			],
			"stateMutability": "view",
			"type": "function"
		},
		{
			"inputs": [],
			"name": "latestRound",
			"outputs": [
				{
					"internalType": "uint256",
					"name": "",
					"type": "uint256"
				}
			],
			"stateMutability": "view",
			"type": "function"
		},
		{
			"inputs": [],
			"name": "latestRoundData",
			"outputs": [
				{
					"internalType": "uint80",
					"name": "roundId",
					"type": "uint80"
				},
				{
					"internalType": "int256",
					"name": "answer",
					"type": "int256"
				},
				{
					"internalType": "uint256",
					"name": "startedAt",
					"type": "uint256"
				},
				{
					"internalType": "uint256",
					"name": "updatedAt",
					"type": "uint256"
				},
				{
					"internalType": "uint80",
					"name": "answeredInRound",
					"type": "uint80"
				}
			],
			"stateMutability": "view",
			"type": "function"
		},
		{
			"inputs": [],
			"name": "latestTimestamp",
			"outputs": [
				{
					"internalType": "uint256",
					"name": "",
					"type": "uint256"
				}
			],
			"stateMutability": "view",
			"type": "function"
		},
		{
			"inputs": [],
			"name": "latestTransmissionDetails",
			"outputs": [
				{
					"internalType": "int192",
					"name": "_latestAnswer",
					"type": "int192"
				},
				{
					"internalType": "uint64",
					"name": "_latestTimestamp",
					"type": "uint64"
				}
			],
			"stateMutability": "view",
			"type": "function"
		},
		{
			"inputs": [
				{
					"internalType": "bytes32",
					"name": "role",
					"type": "bytes32"
				},
				{
					"internalType": "address",
					"name": "account",
					"type": "address"
				}
			],
			"name": "renounceRole",
			"outputs": [],
			"stateMutability": "nonpayable",
			"type": "function"
		},
		{
			"inputs": [
				{
					"internalType": "bytes32",
					"name": "role",
					"type": "bytes32"
				},
				{
					"internalType": "address",
					"name": "account",
					"type": "address"
				}
			],
			"name": "revokeRole",
			"outputs": [],
			"stateMutability": "nonpayable",
			"type": "function"
		},
		{
			"inputs": [
				{
					"internalType": "bytes4",
					"name": "interfaceId",
					"type": "bytes4"
				}
			],
			"name": "supportsInterface",
			"outputs": [
				{
					"internalType": "bool",
					"name": "",
					"type": "bool"
				}
			],
			"stateMutability": "view",
			"type": "function"
		},
		{
			"inputs": [
				{
					"internalType": "int192",
					"name": "_answer",
					"type": "int192"
				}
			],
			"name": "transmit",
			"outputs": [],
			"stateMutability": "nonpayable",
			"type": "function"
		},
		{
			"inputs": [],
			"name": "typeAndVersion",
			"outputs": [
				{
					"internalType": "string",
					"name": "",
					"type": "string"
				}
			],
			"stateMutability": "pure",
			"type": "function"
		},
		{
			"inputs": [],
			"name": "version",
			"outputs": [
				{
					"internalType": "uint256",
					"name": "",
					"type": "uint256"
				}
			],
			"stateMutability": "view",
			"type": "function"
		}
	]
}